:020000040800F2
:10000000A00900208D01000855260008AF22000835
:1000100051260008B9020008452A00080000000027
:10002000000000000000000000000000A5270008FC
:10003000E104000800000000692600081D280008EF
:10004000A7010008A7010008A7010008A7010008F0
:10005000A7010008A7010008A7010008A7010008E0
:10006000A7010008A7010008A7010008A7010008D0
:10007000A701000815030008A7010008A701000850
:1000800025030008A7010008A7010008A701000830
:10009000A7010008A7010008A7010008A7010008A0
:1000A000A7010008A7010008A7010008A701000890
:1000B00029280008A7010008A7010008A7010008D7
:1000C000A7010008A7010008A7010008A701000870
:1000D000A7010008A7010008252A0008352A000802
:1000E000E3040008A7010008A701000800F002F8D7
:1000F00000F03CF80AA090E8000C82448344AAF186
:100100000107DA4501D100F031F8AFF2090EBAE883
:100110000F0013F0010F18BFFB1A43F0010318473B
:10012000483B0000683B0000103A24BF78C878C103
:10013000FAD8520724BF30C830C144BF04680C60ED
:10014000704700000023002400250026103A28BF35
:1001500078C1FBD8520728BF30C148BF0B60704739
:100160001FB500F05DF81FBD10B510BD00F06AF8B6
:100170001146FFF7F5FF02F0F5FF00F088F803B431
:10018000FFF7F2FF03BC00F091F800000948804738
:1001900009480047FEE7FEE7FEE7FEE7FEE7FEE769
:1001A000FEE7FEE7FEE7FEE704480549054A064B81
:1001B0007047000025280008ED000008A00300207B
:1001C000A0090020A0050020A00500204FF000029B
:1001D00000B5134694469646203922BFA0E80C503D
:1001E000A0E80C50B1F12001BFF4F7AF090728BF18
:1001F000A0E80C5048BF0CC05DF804EB890028BF94
:1002000040F8042B08BF704748BF20F8022B11F0BC
:10021000804F18BF00F8012B704770477047704738
:1002200070B5064C7C44064D7D4403E020682044B4
:100230008047241DAC42F9D170BD0000603A000037
:10024000643A0000754600F02BF8AE46050069469A
:10025000534620F00700854618B020B5FFF7A4FFED
:10026000BDE820404FF000064FF000074FF00008B7
:100270004FF0000B21F00701AC46ACE8C009ACE838
:10028000C009ACE8C009ACE8C0098D46704710B59C
:100290000446AFF300802046BDE81040FFF76FBF73
:1002A000004870473C0300207047000001491820B7
:1002B000ABBEFEE72600020000BFFEE72DE9F047D7
:1002C00004460D4616463146284603F03BFB82465F
:1002D0004FF0804103F008FA8146214603F096F979
:1002E00007463146284603F02DFB82464FF08041F9
:1002F00003F0FAF98146214603F021FC80460448C8
:1003000007604760C0F80880C0F80C80BDE8F0873F
:10031000A802002010B5024800F07CF910BD0000D2
:100320005402002010B5024800F074F910BD00001E
:100330001002002010B514220449054801F09EFF68
:1003400014220449044801F099FF10BD1403002051
:100350008001002028030020C80100202DE9FE4371
:100360005248C06B00684068C0F1140085B25FE07D
:100370004F4850490988445C4E480088401C14216D
:1003800090FBF1F201FB12004A4908804A480088BC
:1003900050B9A52C4BD1484801880088401C464ADA
:1003A00010804648445442E0434801880088401C7D
:1003B000414A10804148445410460088052836D1EF
:1003C0003E4800795A282FD13C48407800F001007F
:1003D0008DF8000039484078C0F340008DF80100E6
:1003E00036484078C0F380008DF8020033484078EA
:1003F000C0F3C0008DF8030030484078C0F300100F
:100400008DF804002D484078C0F340108DF80500A9
:100410002A4880788DF807002848C0788DF80800B1
:10042000684602F023F900BF00202349088000BF7E
:1004300020480088A8429BD1214A224801682248CE
:100440000068FFF73BFF00242BE0C4EBC4011F4A08
:1004500002EB8101086903F029FA80461C48016813
:10046000404603F06FFA07460020C4EBC401174A68
:1004700002EB81010861174951F824001649096807
:1004800003F032F98046154903F05CFA064631461E
:10049000204602F02FF906463146204602F084F944
:1004A000641C042CD1DBBDE8FE8300008001002029
:1004B000140300209C000020A40000209E000020C7
:1004C0000000B84124000020200000202800002067
:1004D00098000020A8020020180000200000C6425A
:1004E000704710B54FF4805000F09CFA4FF4005064
:1004F00000F098FA4FF4804000F094FA4FF4004076
:1005000000F090FA10BD72B600BFFEE7014600226F
:1005100091F82100022808D00420886300BF002041
:1005200081F8200000BF012070470868006820F0B3
:100530000E000B6818600868006820F001000B6866
:10054000186091F8403001209840CB6B5860012032
:1005500081F8210000BF002081F8200000BF104674
:10056000E2E7000070B50446002594F82100022857
:1005700003D00420A063012548E02068006820F033
:100580000E00216808602068006820F001002168E2
:1005900008601F492068884201D1012026E01C49DB
:1005A00014312068884201D110201FE018492831F9
:1005B0002068884201D1801518E015493C31206837
:1005C000884201D1801411E01149503120688842DD
:1005D00002D14FF4803009E00D496431206888422F
:1005E00002D14FF4801001E04FF0807008490839C3
:1005F0004860012084F8210000BF002084F820001A
:1006000000BF606B10B12046616B8847284670BD03
:100610000800024070B50446E06B05682068066873
:1006200094F84010042088402840002846D006F066
:100630000400002842D02068006800F0200028B99B
:100640002068006820F0040021680860574920688D
:10065000884201D1042027E054491431206888429F
:1006600001D1402020E0514928312068884201D141
:10067000001519E04D493C312068884202D14FF401
:10068000804011E0494950312068884202D14FF43E
:10069000802009E0454964312068884202D14FF446
:1006A000800001E04FF08060404908394860E06A0E
:1006B00000287AD02046E16A884776E094F8401016
:1006C000022088402840A0B306F0020088B32068CA
:1006D000006800F0200040B92068006820F00A009F
:1006E00021680860012084F8210030492068884290
:1006F00001D1022028E02D4914312068884201D11F
:10070000202021E0294928312068884201D1401564
:100710001AE026493C312068884202D14FF400504B
:1007200012E0224950312068884203D14FF4003052
:100730000AE017E01D4964312068884202D14FF475
:10074000001001E04FF0007018490839486000BF00
:10075000002084F8200000BFA06A30B32046A16AC0
:10076000884722E094F84010082088402840E0B1F3
:1007700006F00800C8B12068006820F00E0021686B
:10078000086094F8401001208840E16B4860012027
:10079000A06384F8210000BF002084F8200000BF7F
:1007A000206B10B12046216B884770BD08000240C5
:1007B0000146002209B901207047164B0868C01A8B
:1007C0001423B0FBF3F08000086412480838C863B3
:1007D000022081F821000868026843F6F070824325
:1007E000D1E901031843CB6818430B6918434B69DF
:1007F00018438B691843CB691843024308680260A9
:1008000000208863012081F82100002081F8200069
:1008100000BFD1E7080002402DE9F04104460D4633
:1008200016461F464FF0000800BF94F8200001282C
:1008300002D10220BDE8F081012084F8200000BF31
:1008400094F8210001282CD1022084F821000020F6
:10085000A0632068006820F00100216808603B4622
:1008600032462946204602F029F9E06A30B1206874
:10087000006840F00E00216808600BE02068006806
:1008800020F00400216808602068006840F00A0039
:10089000216808602068006840F001002168086055
:1008A00006E000BF002084F8200000BF4FF00208DF
:1008B0004046BFE72DE9F041064602F0F9F8074649
:1008C0000024A7E0C4EBC400554901EB80008089F7
:1008D000B0427DD1C4EBC40001EB80008069381ABE
:1008E000C82876D9C4EBC40001EB800087610025DD
:1008F000C4EBC4020B4603EB82029188C4EBC40232
:1009000053F8220000F02CFA08B145F00105C4EBC1
:10091000C402434B03EB82029189C4EBC40203EB94
:100920008202906800F01CFA08B145F00205C4EBA1
:10093000C4003B4901EB8000007D08B9012D1CD0AB
:10094000C4EBC400364901EB8000007D012801D1D1
:10095000032D12D0C4EBC400314901EB8000007DAF
:10096000032801D1022D08D0C4EBC4002C4901EBAF
:100970008000007D02280ED16DB9C4EBC400284967
:1009800001EB80000069401CC4EBC401244A02EB67
:100990008101086135E0C4EBC400214901EB80000E
:1009A000007D08B9022D1FD0C4EBC4001C4901EB27
:1009B0008000007D022801D1032D15D0C4EBC400B6
:1009C000174901EB8000007D032804D1012D01E0CF
:1009D0001FE01DE008D0C4EBC400114901EB80000A
:1009E000007D01280DD165B9C4EBC4000C4901EBB1
:1009F00080000069401EC4EBC401094A02EB81017A
:100A00000861C4EBC400064901EB8000057500BF16
:100A100003E0641C042CFFF655AFBDE8F081000034
:100A20002800002010B5044604480068204020B18A
:100A3000024804602046FFF73DFF10BD140401404A
:100A40002DE9F8470346002294466EE14FF0010875
:100A500008FA02F4D1F8008008EA0400A0427DD12F
:100A6000DFF8DCA2D1F80480A8EB0A09D0453AD01F
:100A700014DCB8F1030F50D009DCB8F1000F31D00D
:100A8000B8F1010F1CD0B8F1020F49D120E0B8F144
:100A9000110F18D0B8F1120F42D11EE0B9F5881F1E
:100AA00025D006DCB9F5803F20D0B9F5801F37D1BD
:100AB0001AE0B9F5001F18D0B9F5041F30D117E0BE
:100AC000D1F80CC02DE0D1F80C8008F1040C28E01E
:100AD000D1F80C8008F1080C23E0D1F80C8008F163
:100AE0000C0C1EE000BF00BF00BF00BF00BF00BF76
:100AF000D1F80880B8F1000F02D14FF0040C0BE0E0
:100B0000D1F80880B8F1010F03D14FF0080C1C6137
:100B100002E04FF0080C5C6103E04FF0000C00E0D5
:100B200000BF00BFFF2801D8984601E003F1040888
:100B30004646FF2802D84FEA820803E0A2F10808DF
:100B40004FEA88084746D6F800804FF00F0909FAA7
:100B500007F928EA09080CFA07F900E088E048EAF2
:100B60000908C6F80080D1F8048008F08058B8F170
:100B7000805F7DD100BFDFF8CC81D8F8188048F0C5
:100B80000108DFF8C091C9F81880C846D8F8188065
:100B900008F00108CDF8008000BF00BF4FEAB93867
:100BA0004FEA920958F829504FEA82784FEA1879AB
:100BB0004FF00F0808FA09F825EA0805DFF88881E0
:100BC000434502D14FF0000816E0DFF8808143452D
:100BD00002D14FF001080FE0DFF87481434502D1E4
:100BE0004FF0020808E0DFF86C81434502D14FF076
:100BF000030801E04FF004084FEA82794FEA1979BF
:100C000008FA09F848EA0505DFF84C814FEA92092D
:100C100048F82950D1F8048008F48018B8F5801FEE
:100C20000AD1DFF83881D8F8008048EA0008DFF8F8
:100C30002C91C9F8008009E0DFF82081D8F8008005
:100C400028EA0008DFF81491C9F80080D1F8048080
:100C500008F40018B8F5001F10D1DFF8008108F182
:100C60000408D8F8008048EA0008DFF8F09000E0B7
:100C70005AE009F10409C9F800800DE0DFF8DC80D2
:100C800008F10408D8F8008028EA0008DFF8CC90C2
:100C900009F10409C9F80080D1F8048008F400388B
:100CA000B8F5003F0ED1DFF8B480A8F10408D8F8F9
:100CB000008048EA0008DFF8A490A9F10409C9F807
:100CC00000800DE0DFF89480A8F10408D8F80080D7
:100CD00028EA0008DFF88490A9F10409C9F8008027
:100CE000D1F8048008F48038B8F5803F0ED1DFF8E1
:100CF0006C80A8F10808D8F8008048EA0008DFF8FE
:100D00005C90A9F10809C9F800800DE0DFF84C807B
:100D1000A8F10808D8F8008028EA0008DFF83C901D
:100D2000A9F10809C9F80080521CD1F8008028FAFE
:100D300002F8B8F1000F7FF489AEBDE8F887000033
:100D4000000011100010024000080140000C01409A
:100D50000010014000140140080001400804014057
:100D6000024693680B400BB1012000E00020704761
:100D70000AB1016101E00B0403617047014800689A
:100D8000704700000000002003480068034909780C
:100D90000844014908607047000000200800002056
:100DA00010B50848006840F01000064908600320AC
:100DB00000F0A8F80F2000F007F800F02BF8002052
:100DC00010BD00000020024070B504460E480078B7
:100DD0004FF47A71B1FBF0F00C490968B1FBF0F502
:100DE000284600F0F9FB08B1012070BD102C07D295
:100DF00000222146501E00F047F80548046001E03B
:100E00000120F2E70020F0E7080000200C0000209D
:100E10000400002008B500BF1148806940F00100BF
:100E20000F4988610846806900F00100009000BF0A
:100E300000BF00BF0846C06940F08050C861084646
:100E4000C06900F08050009000BF00BF00BF05499E
:100E5000486820F0E06040F00070486000BF08BDC6
:100E6000001002400000014001460846002809DB4E
:100E700000F01F0301229A4043099B0003F1E02385
:100E8000C3F8002100BF70472DE9F05F80460D4692
:100E90001646002702F02CF9074639462A46334603
:100EA00001F00700C0F1070ABAF1040F02D94FF0B0
:100EB000040A01E0C0F1070AD14600F1040ABAF1C0
:100EC000070F02D24FF0000A01E0A0F1030AD44656
:100ED0004FF0010A0AFA09FAAAF1010A0AEA020A1B
:100EE0000AFA0CFA4FF0010B0BFA0CFBABF1010BF9
:100EF0000BEA030B4AEA0B042146404602F0E4F8F1
:100F0000BDE8F09F00BF00F00702064B19684FF6DE
:100F1000FF031940044B0B4343EA0221014B1960C4
:100F200000BF70470CED00E00000FA0570B5044604
:100F30000D460CB9012070BD5A48006800F007004A
:100F4000A8420ED25748006820F0070028435549B0
:100F500008600846006800F00700A84201D00120A0
:100F6000E9E7207800F0020002281DD1207800F087
:100F70000400042805D14C48406840F4E0604A4928
:100F80004860207800F00800082805D146484068ED
:100F900040F46050444948604348406820F0F00005
:100FA000A168084340494860207800F0010078B308
:100FB0006068012806D13C48006800F4003090B910
:100FC0000120B8E76068022806D13748006800F0C1
:100FD000007040B90120AEE73348006800F002001D
:100FE00008B90120A7E73048406820F00300616895
:100FF00008432D494860FFF7C1FE064609E0FFF7A8
:10100000BDFE801B41F28831884202D9032092E75D
:1010100007E02548406800F00C006168B0EB810FE4
:10102000EDD12048006800F00700A8420ED91D4805
:10103000006820F0070028431A4908600846006845
:1010400000F00700A84201D0012074E7207800F0EA
:101050000400042807D11448406820F4E060E168E7
:10106000084311494860207800F00800082808D19A
:101070000D48406820F46050216940EAC1000A49E7
:10108000486000F03FF808494968C1F30311074A76
:10109000515CC8400649086006480068FFF794FEA6
:1010A000002048E70020024000100240503C0008A9
:1010B0000C00002004000020014800687047000078
:1010C0000C00002000B5FFF7F7FF04494968C1F3A1
:1010D0000221034A515CC84000BD000000100240DC
:1010E000603C000800B5FFF7E7FF04494968C1F319
:1010F000C221034A515CC84000BD000000100240FC
:10110000603C000870B5002100220024002300206C
:10111000134D696801F00C05EDB1042D02D0082DC6
:101120001AD101E00F4819E00F4DC1F38346AB5DC2
:1011300001F4803555B10A4D6D68C5F340450B4E3D
:10114000725D084D5D43B5FBF2F402E0084D03FB10
:1011500005F4204602E000BF024800BF00BF70BD9A
:101160000010024000127A003E3C00084E3C00088D
:1011700000093D00F8B504460CB90120F8BD2078FF
:1011800000F00100002878D0F848406800F00C001A
:1011900004280CD0F548406800F00C00082811D154
:1011A000F248406800F48030B0F5803F0AD1EF4843
:1011B000006800F4003000285FD0606800285CD12F
:1011C0000120DBE700BF6068B0F5803F06D1E7484B
:1011D000006840F48030E549086028E0606858B94C
:1011E000E248006820F48030E04908600846006862
:1011F00020F4802008601AE06068B0F5A02F0BD1C1
:10120000DA48006840F48020D84908600846006841
:1012100040F4803008600AE0D448006820F4803050
:10122000D24908600846006820F48020086000BFAA
:10123000606888B1FFF7A2FD054606E0FFF79EFD56
:10124000401B642801D9032098E7C848006800F4CF
:1012500000300028F2D010E0FFF790FD054606E0D0
:10126000FFF78CFD401B642801D9032086E7BF48A7
:10127000006800F400300028F2D1207800F002006D
:10128000022857D1B948406800F00C0050B1B74867
:10129000406800F00C00082818D1B448406800F4F9
:1012A000803098B9B148006800F0020020B1206990
:1012B000012801D0012061E7AC48006820F0F80067
:1012C000616940EAC100A949086033E02069E8B1DA
:1012D0000120A7490860FFF751FD054606E0FFF72A
:1012E0004DFD401B022801D9032047E79F480068B5
:1012F00000F002000028F2D09C48006820F0F800BE
:10130000616940EAC1009949086013E000209849EA
:101310000860FFF733FD054606E0FFF72FFD401B91
:10132000022801D9032029E79048006800F0020054
:101330000028F2D1207800F0080008282DD1A069FB
:10134000B8B101208B490860FFF718FD054606E09B
:10135000FFF714FD401B022801D903200EE7834844
:10136000406A00F002000028F2D0012001F0BCFB2E
:1013700013E000207F490860FFF700FD054606E006
:10138000FFF7FCFC401B022801D90320F6E6774852
:10139000406A00F002000028F2D1207800F004003A
:1013A000042873D100277148C06900F0805070B9DB
:1013B00000BF6E48C06940F080506C49C861084663
:1013C000C06900F08050009000BF00BF01276A484C
:1013D000006800F48070B0B96748006840F480701D
:1013E00065490860FFF7CAFC054606E0FFF7C6FC42
:1013F000401B642801D90320C0E65F48006800F460
:1014000080700028F2D000BFE068012806D157485C
:10141000006A40F001005549086227E0E06858B9C9
:101420005248006A20F00100504908620846006AEC
:1014300020F00400086219E0E06805280BD14B4851
:10144000006A40F00400494908620846006A40F01A
:10145000010008620AE04548006A20F001004349A3
:1014600008620846006A20F00400086200BFE068D5
:10147000A0B1FFF783FC054609E0FFF77FFC401BA6
:1014800041F28831884202D9032077E622E03748CA
:10149000006A00F002000028EFD012E0FFF76EFCB7
:1014A000054608E0FFF76AFC401B41F2883188429C
:1014B00001D9032062E62D48006A00F002000028EE
:1014C000F0D1012F05D12948C06920F0805027496B
:1014D000C86100BFE069C8B32448406800F00C0050
:1014E000082860D0E069022848D100202049086619
:1014F000FFF744FC054606E0FFF740FC401B0228CE
:1015000001D903203AE61948006800F0007000286D
:10151000F2D1206AB0F5803F07D11448406820F42A
:101520000030A168084311494860D4E90801084324
:101530000E49496821F4741108430C4948600120A0
:101540000B490866FFF71AFC054607E03DE0FFF788
:1015500015FC401B022801D903200FE60348006850
:1015600000F000700028F2D02FE0000000100240D0
:1015700000004242800442420070004000201449B2
:101580000866FFF7FBFB054606E0FFF7F7FB401B8D
:10159000022801D90320F1E50E48006800F0007030
:1015A0000028F2D111E0E069012800D1E6E5094800
:1015B000466806F48031206A814204D106F4701135
:1015C000606A814201D00120D8E50020D6E5000004
:1015D000000042420010024070B504462546681ED5
:1015E000B0F1807F01D301200FE0681E4FF0E021B1
:1015F00048610F214FF0FF3001F066FD00204FF0F1
:10160000E021886107200861002070BD70477047A5
:1016100030B502460B4600BF92F83C00012801D1CC
:10162000022030BD012082F83C0000BF022082F879
:101630003D00106844681068816824F070041868E0
:10164000044310684460104D1068A8420BD0106825
:10165000B0F1804F07D00D4D1068A84203D00C4D5B
:101660001068A84205D121F0800158680143106834
:101670008160012082F83D0000BF002082F83C001C
:1016800000BF00BFCDE70000002C01400004004077
:101690000008004010B504460CB9012010BD94F8B4
:1016A0003D0028B9002084F83C00204600F026F8D0
:1016B000022084F83D00211D206801F0BDF80120C2
:1016C00084F8460000BF84F83E0001213F20015508
:1016D000402001554120015500BF00BF012084F882
:1016E000420043200155442001554520015500BFCB
:1016F000012084F83D000020D0E7000038B5044602
:101700002068B0F1804F16D100BF1D48C06940F07D
:1017100001001B49C8610846C06900F00100009043
:1017200000BF00BF002211461C20FFF7ADFB1C20AC
:10173000FFF79AFB23E01349206888420DD100BFD0
:101740000F48C06940F002000D49C8610846C069F1
:1017500000F00200009000BF11E00B4920688842B1
:101760000DD100BF0648C06940F004000449C861BB
:101770000846C06900F00400009000BF00BF38BDFB
:10178000001002400004004000080040014691F8AB
:101790003D00012801D001207047022081F83D0062
:1017A000124B086898420BD00868B0F1804F07D000
:1017B0000F4B0868984203D00E4B086898420CD132
:1017C0000868806800F00702062A0CD008680068E4
:1017D00040F001000B68186005E00868006840F000
:1017E00001000B6818600020D6E70000002C0140C3
:1017F0000004004000080040014691F83D00012827
:1018000001D001207047022081F83D000868C068BF
:1018100040F001000B68D860124B086898420BD06A
:101820000868B0F1804F07D00F4B0868984203D08A
:101830000E4B086898420CD10868806800F00702D7
:10184000062A0CD00868006840F001000B68186098
:1018500005E00868006840F001000B68186000208F
:10186000D0E70000002C01400004004000080040C8
:101870002DE9F04104460D46002700BF94F83C00D6
:10188000012802D10220BDE8F081012084F83C004B
:1018900000BF022084F83D002068866826F07706A5
:1018A00026F47F46206886602868502833D00CDCF8
:1018B000202850D004DC00284BD0102851D149E01A
:1018C000302849D040284CD139E060282DD07028EC
:1018D00007D0B0F5805F03D0B0F5005F41D10DE0D7
:1018E00041E0D5E902136A68206800F0F8FF20683B
:1018F000866846F077062068866034E0D5E90213F2
:101900006A68206800F0EBFF2068806840F480403F
:101910002168886027E0EA686968206801F089F931
:101920005021206801F07CF91DE0EA6869682068B0
:1019300001F092F96021206801F072F913E0EA6881
:101940006968206801F075F94021206801F068F9A4
:1019500009E000BF00BF00BF2968206801F060F9FE
:1019600001E0012700BF00BF012084F83D0000BF57
:10197000002084F83C0000BF384684E7704770B50B
:1019800004462068C5682068066906F0020002283F
:1019900019D105F00200022815D1401F2168086105
:1019A000012020772068806900F0030018B12046EC
:1019B000FFF7E4FF05E0204600F0C4F8204600F001
:1019C00078F90020207706F00400042819D105F0EA
:1019D0000400042815D1C043216808610220207743
:1019E0002068806900F4407018B12046FFF7C6FFF8
:1019F00005E0204600F0A6F8204600F05AF9002045
:101A0000207706F00800082819D105F008000828FA
:101A100015D1C04321680861042020772068C0697F
:101A200000F0030018B12046FFF7A8FF05E02046AC
:101A300000F088F8204600F03CF90020207706F0FE
:101A40001000102819D105F01000102815D1C0433E
:101A500021680861082020772068C06900F4407080
:101A600018B12046FFF78AFF05E0204600F06AF82B
:101A7000204600F01EF90020207706F0010048B152
:101A800005F0010030B16FF00100216808612046C7
:101A900000F07AF906F08000802809D105F0800076
:101AA000802805D1C043216808612046FFF7AEFDBC
:101AB00006F04000402809D105F04000402805D13B
:101AC000C04321680861204600F05FF906F020005D
:101AD000202809D105F02000202805D1C043216825
:101AE00008612046FFF793FD70BD000010B586B079
:101AF0000446002002900390049005900E4920684F
:101B0000884217D100BF0D48806940F008000B499A
:101B100088610846806900F00800019000BF00BF9E
:101B20004FF47070029002200390059002A90448BF
:101B3000FEF786FF06B010BD00080040001002400E
:101B4000000C014070472DE9F04104460D46164651
:101B5000002700BF94F83C00012802D10220BDE814
:101B6000F081012084F83C0000BF36B1042E1BD068
:101B7000082E31D00C2E5ED145E02946206800F0B9
:101B8000C7FF2068806940F00800216888612068EC
:101B9000806920F0040021688861206880692969D3
:101BA00008432168886148E02946206800F0A2FEC9
:101BB0002068806940F4006021688861206880693D
:101BC00020F480602168886120688069296940EA82
:101BD00001202168886130E02946206800F0C8FFB4
:101BE0002068C06940F008002168C8612068C069A9
:101BF00020F004002168C8612068C0692969084391
:101C00002168C86119E02946206800F0E5FF2068D6
:101C1000C06940F400602168C8612068C06920F490
:101C200080602168C8612068C069296940EA012094
:101C30002168C86101E0012700BF00BF00BF00208C
:101C400084F83C0000BF384689E710B504460CB95B
:101C5000012010BD94F83D0028B9002084F83C0014
:101C6000204600F025F8022084F83D00211D206860
:101C700000F0E2FD012084F8460000BF84F83E0039
:101C800001213F200155402001554120015500BF51
:101C900000BF012084F84200432001554420015533
:101CA0004520015500BF012084F83D000020D0E709
:101CB0007047704770B504460D4615B994F83E005C
:101CC0000BE0042D02D13F20005D06E0082D02D17B
:101CD0004020005D01E04120005D012801D001208D
:101CE00070BD1DB9022084F83E000EE0042D03D122
:101CF00002213F20015508E0082D03D10221402098
:101D0000015502E0022141200155012229462068A7
:101D100000F0D4FD19492068884201D1012000E07B
:101D2000002028B12068406C40F4004021684864DD
:101D30001249206888420BD02068B0F1804F07D04C
:101D40000F492068884203D00E49206888420CD190
:101D50002068806800F00706062E0CD02068006816
:101D600040F001002168086005E02068006840F04C
:101D70000100216808600020B2E70000002C01404B
:101D800000040040000800407047704770477047EB
:101D90002DE9F84F0446206805682068C668206869
:101DA00047694FF00009CA4605F00F09B9F1000F65
:101DB0000AD105F0200038B106F0200020B12046FD
:101DC00001F004F8BDE8F88FB9F1000F7BD007F0FF
:101DD000010018B906F49070002874D005F00100D5
:101DE00030B106F4807018B1606C40F0010060649E
:101DF00005F0040030B107F0010018B1606C40F04C
:101E00000200606405F0020030B107F0010018B173
:101E1000606C40F00400606405F0080048B106F012
:101E2000200010B907F0010018B1606C40F0080004
:101E30006064606C002845D005F0200028B106F0F1
:101E4000200010B1204600F0C1FF20684069C0F3B7
:101E5000801A606C00F0080010B9BAF1000F2CD0A5
:101E6000204601F073F82068406900F0400000B39C
:101E700000BF00BF2168143151E8001F21F040006D
:101E80002168143141E80002002AF3D100BFE06B61
:101E900050B17748E16B4863E06BFEF763FB88B1B4
:101EA000E06B416B88470DE02046FFF770FF09E0CB
:101EB00009E02046FFF76BFF04E02046FFF767FFCD
:101EC000002060647EE7206B012877D105F01000C8
:101ED000002873D006F010000028FAD000BF0020C0
:101EE000009020680068009020684068009000BF63
:101EF00000BF2068406900F0400000285FD0E06B20
:101F0000006840681FFA80F8B8F1000F55D0A08D26
:101F1000404552DDA4F82E80E06B8069202843D034
:101F200000BF00BF21680C3151E8001F21F4807010
:101F300021680C3141E80002002AF3D100BF00BF44
:101F400000BF2168143151E8001F21F00100216811
:101F5000143141E80002002AF3D100BF00BF00BFE6
:101F60002168143151E8001F21F04000216814312C
:101F700041E80002002AF3D100BF202084F842008B
:101F80000020206300BF00BF21680C3151E8001F12
:101F900021F0100021680C3141E80002002AF3D141
:101FA00000BFE06BFEF7B2FA02206063A08DE28D05
:101FB000801A81B22046FFF7E9FE03E742E0A08DD8
:101FC000E18D401A1FFA80F8E08DD0B3B8F1000F10
:101FD00037D000BF00BF21680C3151E8001F21F449
:101FE000907021680C3141E80002002AF3D100BF53
:101FF00000BF00BF2168143151E8001F21F001002B
:102000002168143141E80002002AF3D100BF2020EA
:1020100084F842000020206300BF00BF21680C311B
:1020200051E8001F21F0100021680C3141E8000246
:10203000002AF3D100BF0220606341462046FFF72B
:10204000A5FEBFE605F0800030B106F0800018B1B3
:10205000204600F039FFB5E605F0400030B106F04B
:10206000400018B1204601F014F8ABE600BFA9E625
:10207000B330000810B504460CB9012010BDA069AA
:1020800000B100E000BF94F8410028B9002084F8B6
:102090004000204600F02AF8242084F841002068FF
:1020A000C06820F400502168C860204600F010FE8F
:1020B0002068006920F49040216808612068406928
:1020C00020F02A00216848612068C06840F4005070
:1020D0002168C86000206064202084F8410084F8F2
:1020E00042000020606300BFC8E7000010B586B062
:1020F0000446002002900390049005905749206800
:10210000884251D100BF5648C06940F4003054495C
:10211000C8610846C06900F40030019000BF00BFEC
:1021200000BF0846806940F0040088610846806965
:1021300000F00400019000BF00BF042002900220C4
:1021400003900320059002A94648FEF779FC082079
:10215000029000200390049002A94248FEF770FC10
:102160004148424908600020486000213F488160A2
:102170008021C16000210161416120218161002134
:10218000C161FEF715FB08B1FEF7BDF900BF374886
:10219000E063446200BF002202212620FEF774FEA5
:1021A0002620FEF761FE56E031492068884252D170
:1021B00000BF2B48C06940F480202949C861084607
:1021C000C06900F48020019000BF00BF00BF084636
:1021D000806940F0080088610846806900F00800C6
:1021E000019000BF00BF0815029002200390032059
:1021F000059002A91F48FEF723FC4FF400600290EF
:1022000000200390049002A91A48FEF719FC164812
:102210003C38194908600020486000211648816058
:102220008021C16000210161416120218161002183
:10223000C161FEF7BDFA08B1FEF765F900BF0E48AF
:10224000E063446200BF002202212720FEF71CFE4B
:102250002720FEF709FE06B010BD00000044004034
:1022600000100240000801406C00024010020020F3
:1022700000480040000C01405402002070B50446A4
:102280000D46164694F8420020280BD105B10EB930
:10229000012070BD0020206332462946204600F010
:1022A0005DFBF6E70220F4E770477047704700BF18
:1022B000FEE7000008B500BF0E48406940F001008D
:1022C0000C4948610846406900F00100009000BFD9
:1022D00000BF002202210D20FEF7D6FD0D20FEF7E3
:1022E000C3FD002202211020FEF7CEFD1020FEF7D4
:1022F000BBFD08BD0010024000B585B00020019074
:1023000002900390049000BF4548806940F010009F
:10231000434988610846806900F01000009000BFC2
:1023200000BF00BF0846806940F020008861084671
:10233000806900F02000009000BF00BF00BF084689
:10234000806940F0040088610846806900F004005C
:10235000009000BF00BF00BF0846806940F0080041
:1023600088610846806900F00800009000BF00BF47
:1023700001224FF440412B48FEF7FAFC01220321D1
:102380002948FEF7F5FC4FF48040019001200290AF
:1023900003900220049001A92248FEF751FB4FF45C
:1023A000004001900120029002200390049001A9B6
:1023B0001C48FEF745FB012001900290039002208B
:1023C000049001A91848FEF73BFB02200190012070
:1023D000029002200390049001A91348FEF730FBFD
:1023E0004FF470400190114802900220039001A91F
:1023F0000F48FEF725FB4FF470600190002002901B
:10240000039001A90848FEF71BFB002201212820A8
:10241000FEF73AFD2820FEF727FD05B000BD0000BD
:10242000001002400010014000080140000011109F
:10243000000C014000B587B0002003900490059087
:102440000690019002904FF080401449086041F6D8
:102450001F40486000211148816040F2E731C160AF
:10246000002101618161FFF715F908B1FEF74BF812
:102470004FF48050039003A90848FFF7F9F908B119
:10248000FEF741F800200190029001A90348FFF7F0
:10249000BFF808B1FEF737F807B000BDA80000206C
:1024A00000B587B00020039004900590069001903D
:1024B00002901448144908604720486000211248DF
:1024C000816042F20F71C160002101618161FFF7FB
:1024D000E1F808B1FEF717F84FF48050039003A914
:1024E0000948FFF7C5F908B1FEF70DF80020019083
:1024F000029001A90448FFF78BF808B1FEF703F832
:1025000007B000BD00040040F000002000B58DB011
:10251000002009900A900B900C90079008901C21C5
:102520006846FDF753FE2C482C4908600820486097
:1025300000212A4881606321C1600021016180215E
:102540008161FFF7A7F808B1FDF7DDFF4FF4805078
:10255000099009A92148FFF78BF908B1FDF7D3FFCE
:102560001E48FFF772FB08B1FDF7CDFF0020079072
:10257000089007A91948FFF74BF808B1FDF7C3FF0A
:102580006020009000200190029004900022694693
:102590001248FFF7D8FA08B1FDF7B5FF04226946E3
:1025A0000E48FFF7D0FA08B1FDF7ADFF08226946E3
:1025B0000A48FFF7C8FA08B1FDF7A5FF0C226946E3
:1025C0000648FFF7C0FA08B1FDF79DFF0348FFF783
:1025D0008DFA0DB000BD0000000800403801002059
:1025E00010B50B480B4908604FF4E13048600021FA
:1025F00008488160C16001610C2141610021816155
:10260000C161FFF737FD08B1FDF77DFF10BD000088
:10261000004400408001002010B50B480B490860C1
:102620004FF4E1304860002108488160C1600161D9
:102630000C21416100218161C161FFF71BFD08B1DF
:10264000FDF761FF10BD000000480040C8010020F8
:1026500000BFFEE700BFFEE710B501604260836087
:102660000024C460046110BD704700002DE9F041F2
:102670000446E0796438E17801EBC10202EB011114
:10268000A0EB8100217901EBC10202EB011100EB0B
:102690008105207A6438217801EBC10202EB011137
:1026A00000EB8100617801EBC10202EB0111A0EBAC
:1026B0008106304601F0FAF807460A4801683846B4
:1026C00001F040F908490860284601F0EFF8074694
:1026D00006480168384601F035F905490860BDE84B
:1026E000F081000018000020200000201C000020C5
:1026F0002400002070B504460D460CB9012000E00E
:102700000020012C01D1012100E000210843F8B193
:102710000021284601F0E2F80FD229461E4801F0B8
:1027200011F90546012211461C48FEF721FB002243
:1027300002211A48FEF71CFB2BE00022012117485A
:10274000FEF716FB012202211448FEF711FB20E0E0
:102750000021284601F0C2F810D229460E4801F0A7
:10276000F1F8054600224FF480410D48FEF700FBCA
:102770000122D1030A48FEF7FBFA0AE00122910385
:102780000748FEF7F5FA00224FF400410448FEF72F
:10279000EFFA284670BD0000000080BF000801402D
:1027A000001001407047000070B504460D461949FD
:1027B000284601F093F900D2164D0021284601F079
:1027C0008DF800D2002534B1012C0BD0022C10D092
:1027D000032C1CD114E0284601F048F80E49096882
:1027E000486314E0284601F041F80B490968886302
:1027F0000DE0284601F03AF807490968C86306E089
:10280000284601F033F804490968086400BF00BF96
:1028100070BD00000000C6423801002010B5FEF770
:10282000B3FA10BD7047000010B50248FFF7A7F8D3
:1028300010BD0000A800002010B502681C4B984293
:1028400008D0B0F1804F05D01A4B984202D01A4BF5
:10285000984203D122F070024B681A43144B9842FD
:1028600008D0B0F1804F05D0124B984202D0124BE5
:10287000984203D122F44072CB681A4322F08003BD
:102880004C6943EA040202608B68C3620B6883628E
:10289000074B984201D10B6903630123436103692C
:1028A00003F001031BB1036923F00103036110BDB1
:1028B000002C0140000400400008004030B501F049
:1028C0001F05012404FA05F3046A9C430462046AA8
:1028D00001F01F0502FA05F52C43046230BD30B546
:1028E0000C46816821F47F4142EA032525432943B0
:1028F000816030BD30B5026A056A25F010050562B9
:102900004368846924F4E04424F440740D6844EA84
:10291000052422F020028D6842EA05120E4DA842DD
:1029200007D100BF22F08002CD6842EA051222F0F2
:102930004002094DA84209D123F4806323F40063C7
:102940004D6943EA85038D6943EA850343608461E9
:102950004D688563026230BD002C014077B581B0BF
:10296000044615460298A062A585002060642220D6
:1029700084F842002848E16B88622848E16BC8620D
:102980002748E16B08630020E16B486302AE3268C0
:102990002368191D2B46E06BFDF73EFF00BF0020AA
:1029A000009020680068009020684068009000BF98
:1029B00000BF206970B100BF00BF21680C3151E831
:1029C000001F41F4807021680C3141E80002002AA8
:1029D000F3D100BF00BF00BF2168143151E8001FD0
:1029E00041F001002168143141E80002002AF3D1CE
:1029F00000BF00BF00BF2168143151E8001F41F043
:102A000040002168143141E80002002AF3D100BFE0
:102A1000002004B070BD0000DF2F0008292F00083F
:102A2000812C000810B50248FFF7B2F910BD000074
:102A30008001002010B50248FFF7AAF910BD000080
:102A4000C801002000BFFEE700B58FB0282105A80F
:102A5000FDF7BCFB14216846FDF7B8FB012005908B
:102A600000040690002007900120099002200C909D
:102A7000C1030D914FF4E0110E9105A8FEF77AFB0A
:102A800008B1FDF740FD0F200090022001900020CA
:102A900002904FF480600390002004900221684669
:102AA000FEF744FA08B1FDF72EFD0FB000BD00009F
:102AB00001480068406A7047F000002030B590F887
:102AC00040500124AC40C56B6C600468636044688E
:102AD000102C04D10468A2600468E16003E004687B
:102AE000A1600468E26030BD08B508490968C908FA
:102AF0004FF47A72B1FBF2F14143009100BF00BF85
:102B000000994A1E00920029F9D108BD0C0000204E
:102B100030B5026A056A25F00105056243688469DB
:102B200024F0700424F003040D682C4322F0020208
:102B30008D682A430D4DA84206D100BF22F008023D
:102B4000CD682A4322F00402084DA84207D123F49D
:102B5000807323F400734D692B438D692B434360CD
:102B600084614D684563026230BD0000002C014065
:102B700030B5026A056A25F4807505624368C46948
:102B800024F0700424F003040D682C4322F4007236
:102B90008D6842EA05220F4DA84207D100BF22F4FA
:102BA0000062CD6842EA052222F48062094DA84203
:102BB00009D123F4805323F400534D6943EA0513EC
:102BC0008D6943EA05134360C4614D68C5630262C1
:102BD00030BD0000002C014030B5036A056A25F4C1
:102BE000805505624468C26922F4E04222F44072D2
:102BF0000D6842EA052223F400538D6843EA053349
:102C0000064DA84204D124F480444D6944EA851459
:102C10004460C2614D680564036230BD002C014010
:102C20000A46816821F0700142F007031943816070
:102C3000704730B50B461446026A056A25F0010557
:102C40000562816921F0F00141EA041122F00A02D3
:102C50001A438161026230BD30B50B461446026AE8
:102C6000056A25F010050562816921F4704141EA89
:102C7000043122F0A00242EA03128161026230BDF7
:102C800070B506460025746A20684069C0F3C01517
:102C900094F84100212805D125B10020E084204688
:102CA00000F08AF920684069C0F3801594F842006A
:102CB000222805D125B10020E085204600F046F904
:102CC000606C40F0100060642046FFF760F870BD53
:102CD00070B504462168096921F44051E268114346
:102CE000226811612269A1681143626941EA020503
:102CF0002168C96841F20C62914329432268D1607E
:102D00002168496921F44071A26911432268516127
:102D10002D4A2168914202D1FEF7E4F901E0FEF765
:102D2000D1F900EBC00101EB001162689200B1FB28
:102D3000F2F100EBC00202EB001263689B00B2FBF1
:102D4000F3F26423B2FBF3F202EBC20303EB0212D1
:102D5000A1EB8201322202EB01116422B1FBF2F1FC
:102D600001F0F00100EBC00202EB001263689B006F
:102D7000B2FBF3F26423B2FBF3F201EB021200EBBD
:102D8000C00101EB001163689B00B1FBF3F100EBA4
:102D9000C00303EB00136668B600B3FBF6F36426CA
:102DA000B3FBF6F303EBC30606EB0313A1EB8301BE
:102DB000322303EB01116423B1FBF3F101F00F01A6
:102DC00011442268916070BD00380140F8B5044696
:102DD00094F84200222875D1A068B0F5805F0CD12C
:102DE000206950B90025A66A20684068C0F3080031
:102DF0003080A06A801CA06215E0A56A0026A06849
:102E0000B0F5805F03D0A06828B9206918B92068A0
:102E10004068287004E02068406800F07F00287057
:102E2000A06A401CA062E08D401E80B2E0850028B0
:102E300046D12068C06820F020002168C860206862
:102E4000C06820F480702168C8602068406920F064
:102E5000010021684861202084F84200002060635E
:102E6000206B012826D10020206300BF00BF21680D
:102E70000C3151E8001F21F0100021680C3141E8AD
:102E80000002002AF3D100BF2068006800F01000A3
:102E900010280AD100BF0020009020680068009030
:102EA00020684068009000BF00BFA18D2046FEF75B
:102EB0006DFF02E02046FFF7F7F90020F8BD01E0C2
:102EC0000020FBE70220F9E7014691F841002128A4
:102ED00028D18868B0F5805F0BD1086948B90A6AC3
:102EE0001088C0F308000B685860086A801C0862EC
:102EF00005E00B6A581C086218780B685860C88C8B
:102F0000401E80B2C88458B90868C06820F08000AC
:102F10000B68D8600868C06840F040000B68D86053
:102F2000002070470220FCE770B505466C6A01205E
:102F30006063206B012805D1A08D41082046FEF773
:102F400025FF02E02046FFF7B0F970BD00BF00BFCB
:102F500002680C3252E8002F22F4907102680C32A1
:102F600042E80013002BF3D100BF00BF00BF02688E
:102F7000143252E8002F22F001010268143242E8B4
:102F80000013002BF3D100BF016B01290ED100BF4C
:102F900000BF02680C3252E8002F22F010010268D4
:102FA0000C3242E80013002BF3D100BF202180F83F
:102FB000421000210163704700BF00BF02680C325D
:102FC00052E8002F22F0C00102680C3242E80013E0
:102FD000002BF3D100BF202180F84110704770B55D
:102FE00005466C6A2868006800F02000002842D17D
:102FF000E08500BF00BF21680C3151E8001F21F4BB
:10300000807021680C3141E80002002AF3D100BF32
:1030100000BF00BF2168143151E8001F21F00100FA
:103020002168143141E80002002AF3D100BF00BF3B
:1030300000BF2168143151E8001F21F040002168D1
:10304000143141E80002002AF3D100BF202084F8A7
:103050004200206B01280ED100BF00BF21680C3157
:1030600051E8001F21F0100021680C3141E80002F6
:10307000002AF3D100BF00206063206B012804D137
:10308000A18D2046FEF782FE02E02046FFF70CF9F4
:1030900070BD10B504462068C06820F0400021686B
:1030A000C860202084F841002046FFF7FFF8002088
:1030B00010BD70B505466C6A0020E085E0842046AE
:1030C000FEF765FE70BD000010B5002804DB0A079E
:1030D000130E054A135406E00A07140E034A00F0C3
:1030E0000F031B1FD45410BD00E400E018ED00E0F6
:1030F00002480068C0F30220704700000CED00E0B9
:103100002DE9F0410748006800F054FA0646002215
:10311000054B00F0A3F8044600F06EF80349086080
:10312000BDE8F0811400002000A074409800002049
:1031300010B507480168074800F004FC064908601C
:1031400006490548006800F0CFFA0549086010BD3F
:10315000140000200000A0401800002000000842D9
:103160001C000020FDF71CFEFFF76EFCFFF7C4F803
:10317000FFF7A0F8FFF75EF9FFF792F9FFF7C6F93E
:10318000FFF72EFAFFF748FA00211548FEF792FDE7
:1031900004211348FEF78EFD08211148FEF78AFD31
:1031A0000C210F48FEF786FD0E48FEF725FB0E4862
:1031B000FEF7ECFAFDF7BEF800240BE004EB840107
:1031C0000A4A02EB81000A4B0A4A4FF07E51FFF790
:1031D00043FA641C042CF1DB01E0FDF7BFF8FCE7C7
:1031E00038010020A8000020F0000020C4020020C8
:1031F0000AD7233CCDCCCC3D21F00042A2F1605255
:10320000B2F5801F01F0004328BFD2F17F6C0BD9CB
:103210005FEA001C43EAC20242EB507018BF7047DD
:1032200028BF20F001007047B2F5801FBCBF1846D0
:1032300070474FEA410C1CF5001F02D2084600F00F
:1032400048BC70B500F062F900000089FFF7F6BFD6
:103250004FF00040A0F58000704700002DE9C0410C
:1032600030B4DFF8A0C23CEA111418BF3CEA1314D2
:1032700000F0EC8081EA03051CEA111444EAD574DD
:1032800018BF1CEA131500F0C780A4EB05044FF02B
:10329000004545EAC12145EAC32341EA505143EACA
:1032A000525304F17F74994204F500344FEAC02070
:1032B0004FEAC22208BF904200F09C804FEA13659B
:1032C0000FF24016765D4FEA134506FB05F7C7F18E
:1032D000807706FB07F74FEAD737A7FB03687642EC
:1032E000C8F58038A7FB06CE38BFA8F1010807FB58
:1032F00008E64FF0000EA6FB028CE6FB03CEDCF1E5
:10330000000CCEF1004E38BFAEF1010EA6FB0C58FA
:103310004FF000074FF00005E6FB0E87A1FB08C643
:10332000A0FB07CE16EB0E0645F10005E1FB076595
:1033300015F1E04E7EBFA4F580345FEA46066D418C
:1033400016F1800745F100054FEA17274FEA066698
:1033500047EA0567A6F1DE46B6F1805F4FEA15251C
:103360001FD9384624F0010C05EBC471BCF1FE6F87
:1033700001EB0C1102D8F0BCBDE8008124425CBF17
:1033800001F5801E9EEAC47F02D4F0BCBDE8008136
:10339000244238D4F0BCA1F1C041BDE8004100F0A6
:1033A00003B94FEAD22242EA43524FEAD323A7FBA2
:1033B00002864FEAD02040EA415007FB03661EEA2E
:1033C0000E0F4FEAD12105FB026658BFA6EB00564F
:1033D000B6EB00564FEA520E4EEAC37E18EB0E0EC5
:1033E00056EB530EBDD518EB02085E417F1C55F11C
:1033F0000005B6E74FF480154FF000074FF00006C8
:103400004FF00008ADE7F0BC4FF0000001F1C04103
:1034100001F00041BDE8008111EA0C1F0CEA131510
:1034200000D00CE013EA0C1F00F025804FF00000E4
:10343000F0BC81EA030101F00041BDE80081F0BC6D
:10344000BDE8004181EA030100F0AEB8F0BCBDE880
:10345000004170B500F05AF8097EFC3E00F007B854
:1034600081EA03014FF0000001F00041704781EA5A
:10347000030100F099B8F0BCBDE800414FF0000036
:1034800021497047FFFDFBF9F7F5F4F2F0EEEDEBA3
:10349000E9E8E6E4E3E1E0DEDDDBDAD8D7D5D4D352
:1034A000D1D0CFCDCCCBCAC8C7C6C5C4C2C1C0BF9E
:1034B000BEBDBCBBBAB9B8B7B6B5B4B3B2B1B0AFA4
:1034C000AEADACABAAA9A8A8A7A6A5A4A3A3A2A188
:1034D000A09F9F9E9D9C9C9B9A9999989797969543
:1034E00095949393929191908F8F8E8E8D8C8C8BDF
:1034F0008B8A898988888787868585848483838267
:10350000828181800000FF070000F87F0EF1020E2B
:103510002EF0030E5EF8046B364205D4012A43EB0D
:10352000030515F5001F12D8012841EB010C1CF50D
:10353000001F0CD80ED14FEAD17C15F5001F0CEB03
:103540004C0C0CF1020C08BF4CEBD37C04E04FF0A8
:10355000080C01E04FEAD37C0CEB4C0526FA05F68B
:1035600006F00706B6F1040C06D20EEB860CBDE899
:1035700070404CF0010C6047DFE80CF0090B0202D0
:103580004FF000414FF00000A1F5002170BD194639
:103590001046012851EB010418BFD4F5001484BF74
:1035A000002001F0004170BD0808A0F500114FEAAD
:1035B0003101704743004FEAD30C4FEA3C0C4340C3
:1035C0001FBF40070CF1605113F0FE4F70471CF015
:1035D000006F03D100200CF0004170470CF0004355
:1035E00043EA507010B540EACC0000F02CFA00BF5E
:1035F000000000924FEA0001FFF7D6BF4FF00041F4
:103600004FF00000A1F500217047000090EA010F83
:1036100048BF81F0004100F1A482421A3CBF801AE9
:1036200089184FEAD0524FF07F4C1CEA410FA2EBB1
:10363000D15318BF9CEA026F00F03B804FF0004C62
:103640004CEA00204CEA012121FA03FC10EB0C0C9F
:103650001ED202F1FF325FEA1C2040EBC25038BF9D
:1036600070471CF07F0F4FEA400C18BFBCF17F4F32
:1036700038BF7047C3F12003994008BF20F0010014
:10368000BCF17F4F38BF7047A0F1C04000F021BAB5
:103690004FEA3C00000A40EBC25028BF1CF0FF0F6D
:1036A0004FEA400CE6D018BFBCF17F4F38BF7047DF
:1036B000EAE79CEA026F05D010EA5C0F08BF00F051
:1036C0000040704710B500F0BEF900BF64FBBE3E7D
:1036D000401058BFC0F14040491058BFC1F14041AF
:1036E0008142EFF3008070474FF47F0C1CEAD01248
:1036F0001EBF1CEAD11392EA0C0F93EA0C0F00F0E4
:10370000858090EA010F48BF42F4807240F4000CBB
:1037100041F400002CF07F4120F07F4000B5814251
:10372000A2EB03020FF2081CACEB504EC0F10000FC
:103730009EF800E04FEA4E0E00FB0EFC38BF490039
:103740004FEA2C1C02F5FA020CFB0EF34FEACE1ED8
:103750004FEA112C4FEAC1210EEB635E42EB22428D
:103760000EFB0CFC4FEA1C5300FB03114FEA112C1B
:103770004FEA01310EFB0CFC4FEADC4C00FB0C1154
:10378000C14228BF09184CEB03335DF804EB10EB82
:10379000410143EBC250B2F57C0F38BF704729D5C9
:1037A00012F0F00F1CBF00F1C04000F00040704765
:1037B000008182838485868788898B8C8D8E8F910A
:1037C0009293959697999A9C9D9FA0A2A3A5A7A82E
:1037D000AAACAEB0B2B3B5B7B9BCBEC0C2C5C7C95A
:1037E000CCCED1D4D7D9DCDFE2E6E9ECF0F3F7FABE
:1037F000FE0000004FEA400C0CF1807CBCF17E4FD3
:1038000028BF7047B0F1C04000F063B990EA010FE3
:103810000CEAD11348BF42F48072624538BF634559
:1038200007D213F47F0F16D080EA010000F00040A9
:10383000704710B500F007F9097EFC3E00F005B8AE
:1038400080EA010000F00040704780EA010000F0CB
:10385000004000F03EB912F47F0F04BF02487047E9
:1038600080EA010000F035B90000C07FC10DD1F140
:103870009E0206DB4FEA002343F0004323FA02F0E6
:103880007047004207D54FEA4001B1F1FE4F02D226
:103890004FF00000704710B500F0D5F84992248031
:1038A000002070476FEA20007047000010F00041D0
:1038B00048BF4042B0FA80F310FA03F2C3F19D030F
:1038C0000BD051EAC35101EB1220530638BF7047A9
:1038D00000F1010008BF20F00100704750EA010C20
:1038E00000F113801CF5000F58BFBCF5000F01D488
:1038F0008842704707D710F5000F58BF11F5000F29
:1039000015D488427047894270471CF5000F04D5D2
:10391000BCF5000FF7D5814270474FF0807C1CEB5F
:10392000400F38BF1CEB410F01D28142704710B5E8
:1039300000F089F8922449004FF000504FF0805178
:10394000FFF7C6BE4FF47F0C1CEAD0121EBF1CEA64
:10395000D11392EA0C0F93EA0C0F00F0478090EA23
:10396000010F48BF42F480724FF0004C4CEA002037
:103970004CEA012102EB0302A0FB0113A2F50002B5
:10398000002918BF43F001035B0028BF4FEA33034F
:1039900042EB22425FEA132C4CEBC2502EBFBCEB31
:1039A000436FB2F57C0F70474FEA036CBCF1004FD8
:1039B00008BF20F00100B2F57C0F38BF70470BD56F
:1039C00082F0FF0212F5803FC8BF704700F1C0408F
:1039D000D8BF00F00040704700F5000C5FEA4C0CC7
:1039E00048BF7047B0F1C04000F073B890EA010FD3
:1039F0000CEAD11348BF42F48072624538BF634578
:103A000004D280EA010000F00040704710B500F0D9
:103A10001AF800BF8900013E00F007B800F009B8AD
:103A20005FEA410C5FEA1C6C08D080EA010000F0FC
:103A300050B85FEA400C5FEA1C6CF6D14FF00040D2
:103A4000A0F5800070470EF1020E2EF0030E5EF816
:103A5000044B244204D44FEA4102B2F17F4F11D803
:103A60004FEA4003B3F17F4F0CD80ED14FEAD07C20
:103A7000B2F17F4F0CEB4C0C0CF1020C08BF4CEB7D
:103A8000D17C04E04FF0080C01E04FEAD17C0CEB54
:103A90004C0324FA03F404F00704B4F1040C06D236
:103AA0000EEB840CBDE810404CF0010C6047DFE8E1
:103AB0000CF0070802024FF00040A0F5800010BD96
:103AC0000846420018BFD2F1807288BF00F0004063
:103AD00010BDFF2141EAD050C005704751EA000CEB
:103AE00000F113801CF5000F58BFBCF5000F01D486
:103AF0008142704707D711F5000F58BF10F5000F2E
:103B000015D481427047894270471CF5000F04D5D7
:103B1000BCF5000FF7D5884270474FF0807C1CEB56
:103B2000410F38BF1CEB400F01D28842704780EA3A
:103B3000010081EA000180EA0100FFF7F8BE80F091
:103B4000004090EA010F7FF568AD81F0004100F080
:103B500008B8000090EA010F48BF81F000413FF52E
:103B60005CAD421A04D882F00042A0EB020011447E
:103B70004FEAD0524FF07F4C1CEA410FA2EBD153D9
:103B800018BF9CEA026F4AD04FF0004C4CEA00206C
:103B90004CEA012121FA03FCB0EB0C0C0FD412F01B
:103BA000FE0F36D05FEA4C001DD5001240EBC2502C
:103BB00038BF70471CF03F0F18BF70470BE0A2F1F1
:103BC00001025FEA1C2040EBC25038BF70471CF076
:103BD0007F0F18BF7047C3F12003994014BF401EE8
:103BE00020F00100704780084FEA122308BF704799
:103BF000B0FA80FCA2EB0C02CCF1280C60FA0CF0BD
:103C000093EA122F04BF00EBC25070474FEAC37013
:103C10007047130A5FEADC1008BF7047F6E79CEABA
:103C2000026F04D010EA5C0F08BF0020704710B587
:103C3000FFF709FF40DFF63E81F0004070470203C6
:103C40000405060708090A0B0C0D0E0F10100102DF
:103C5000000000000000000001020304060708093C
:103C60000000000001020304903C00080000002056
:103C7000A800000028010008383D0008A800002026
:103C8000F808000044010008A9F4FFFF75F4FFFFE5
:103C900000000000100000000100000000127A0087
:103CA00000000000D8A05543000000000000000004
:103CB00000000000000000000008014000010000BA
:103CC000000C014000100000000000000000000097
:103CD000000000000008014000020000000C01404C
:103CE00000200000000000000000000000000000B4
:103CF0000008014000040000000C014000400000EA
:103D0000000000000000000000000000000801406A
:103D100000080000000C01400080000000000000CE
:103D20000000000000000000000000000000000093
:083D300000000000000000008B
:04000005080000ED02
:00000001FF
