:020000040800F2
:10000000700A002089010008B1220008A11D000823
:100010008D2100088F020008592B00080000000005
:10002000000000000000000000000000C5230008E0
:10003000EB0200080000000039230008E12400085A
:10004000A3010008A3010008A3010008A301000800
:10005000A3010008A3010008A3010008A3010008F0
:10006000A3010008A3010008A3010008A3010008E0
:10007000910200089D020008A3010008A3010008E6
:10008000A9020008B5020008A3010008A3010008A6
:10009000A3010008A3010008A3010008A3010008B0
:1000A000A3010008A3010008A3010008A3010008A0
:1000B00045250008A3010008A3010008A3010008CA
:1000C000A3010008A3010008A3010008A301000880
:1000D000A3010008A3010008412B00084D2B0008D4
:1000E000A3010008A3010008A301000800F002F822
:1000F00000F03AF80AA090E8000C82448344AAF188
:100100000107DA4501D100F02FF8AFF2090EBAE885
:100110000F0013F0010F18BFFB1A43F0010318473B
:10012000C4380000E4380000103A24BF78C878C111
:10013000FAD8520724BF30C830C144BF04680C60ED
:10014000704700000023002400250026103A28BF35
:1001500078C1FBD8520728BF30C148BF0B60704739
:100160001FB51FBD10B510BD00F058F81146FFF7C0
:10017000F7FF02F041FD00F076F803B4FFF7F2FF5D
:1001800003BC00F07DF8000009488047094800479B
:10019000FEE7FEE7FEE7FEE7FEE7FEE7FEE7FEE737
:1001A000FEE7FEE704480549054A064B7047000094
:1001B00043250008ED00000870040020700A0020AC
:1001C00070060020700600204FF0000200B51346B4
:1001D00094469646203922BFA0E80C50A0E80C5067
:1001E000B1F12001BFF4F7AF090728BFA0E80C5018
:1001F00048BF0CC05DF804EB890028BF40F8042B11
:1002000008BF704748BF20F8022B11F0804F18BF7D
:1002100000F8012B7047704770477047754600F033
:100220002BF8AE4605006946534620F00700854688
:1002300018B020B5FFF7B6FFBDE820404FF000062C
:100240004FF000074FF000084FF0000B21F00701BE
:10025000AC46ACE8C009ACE8C009ACE8C009ACE801
:10026000C0098D46704710B50446AFF300802046A4
:10027000BDE81040FFF781BF004870471004002020
:1002800001491820ABBEFEE7260002007047FEE7DA
:10029000014800F04FB90000CC030020014800F0F5
:1002A00049B9000088030020014800F043B900006C
:1002B00000030020014800F03DB900004403002085
:1002C00030B590F840500124AC40C56B6C600468B8
:1002D00063604368102B036803D099600068C260B4
:1002E00030BD9A600068C16030BD70472DE9F047AD
:1002F000394D2878A5285BD128795A2858D16878B3
:10030000364C800645D501202070608803F058F9EE
:10031000A168884603F068F90646E87803F050F9CA
:10032000414607464FF07E58404603F033FA3946BF
:1003300003F05AF9314602F0C5FF03F009F9608075
:100340000646A08803F03CF9E1688A4603F04CF9C0
:100350000746A87803F034F981465146404603F039
:1003600019FA494603F040F9394602F0ABFF03F0B1
:10037000EFF8A08001B230B202F0F0FB68784007DD
:1003800001D500F05DF86878C10714D001F0DEFFF8
:100390001FE02078002550B104221149114801F0D6
:1003A000ADFC1148114905830D83C582CD822570AE
:1003B0000020BDE8F087810702D500F037F808E09B
:1003C000C10602D501F0BAFF03E0000701D500F035
:1003D00025F80120EDE70000480000200000002083
:1003E00018000020B80200205400002090000020D7
:1003F00072B6FEE7064910B54860064800F0AEFE4A
:10040000054900200968486202490968486210BD30
:100410001000002098010020280200200249FA2044
:100420000968886370470000500100200348B42128
:100430000268516300687821016470475001002010
:100440000348FA2102685163006832210164704751
:100450005001002010B590F821100022022905D08B
:100460000421816380F82020012010BD01680B6801
:1004700023F00E030B6001680B6823F001030B608F
:1004800090F84030C46B012101FA03F3636080F8F7
:10049000211080F82020104610BD000010B590F803
:1004A00021100024022903D00421816301243DE0AE
:1004B00001680A6822F00E020A6001680A6822F0E8
:1004C00001020A601A4A0168914201D1012121E02A
:1004D000174A1432914201D110211BE0144A2832EC
:1004E000914201D1891515E0114A3C32914201D166
:1004F00089140FE00E4A5032914202D14FF48031FC
:1005000008E00B4A6432914202D14FF4801101E0BD
:100510004FF08071064A083A5160012180F821109D
:10052000002180F82010416B01B18847204610BDA2
:10053000080002402DE9F05FC16B0C6801680B6890
:10054000D0F840C0042202FA0CF2494DDFF824A191
:10055000494E4A4FDFF828B1DFF828E122422CD07B
:100560005A072AD50A68920603D40A6822F00402C0
:100570000A600168A94201D1042219E0514501D164
:10058000402215E0B14202D14FF4806210E0B9423E
:1005900002D14FF480420BE0594502D14FF4802242
:1005A00006E0714502D14FF4800201E04FF0806215
:1005B0002F4908394A60C16A3BE04FF0020808FA47
:1005C0000CF818EA040F4FF000094FF0010235D083
:1005D0005FEA837832D50B689B0605D40B6823F05D
:1005E0000A030B6080F821200168A94201D1022290
:1005F00019E0514501D1202215E0B14202D14FF45A
:10060000007210E0B94202D14FF400520BE059459C
:1006100002D14FF4003206E0714502D14FF40012CE
:1006200001E04FF00072124908394A6080F82090CA
:10063000816A00291AD0BDE8F05F0847082505FA4D
:100640000CF5254212D01B0710D50B6823F00E03C2
:100650000B6090F84010C36B02FA01F1596082639D
:1006600080F8212080F82090016BE2E7BDE8F09F40
:10067000080002401C0002403000024044000240DA
:10068000580002406C00024030B528B308C8134936
:1006900014221944B1FBF2F18900C163104981634E
:1006A000022141771A6843F6F0718A43D0E90014B9
:1006B0002143D0E902452C43214304692143446985
:1006C00021438469214311431960002141630122C0
:1006D00042770177084630BD012030BDF8FFFDBFED
:1006E0000000024070B5044690F820000025012863
:1006F0000CD0012084F8200094F821600020012E05
:1007000006D084F820000225284670BD022070BD66
:10071000022684F82160A0632068066826F001069E
:1007200006602046FFF7CCFDE06A002820680168DB
:1007300002D041F00E0106E021F0040101602068C2
:10074000016841F00A0101602068016841F001017F
:100750000160D9E770B5044600F004F90546601C55
:1007600002D004480078044400F0FCF8401BA0428A
:10077000FAD370BD380000202DE9F84FDFF8B891AA
:100780000024A9F1040B23460F2709F1040AABF159
:10079000040EC9E00125A5402A40AA427DD1674E3A
:1007A000D1F804C0ACEB0608B44532D014DCBCF17F
:1007B000030F3AD009DCBCF1000F2AD0BCF1010FC5
:1007C0001CD0BCF1020F31D11DE0BCF1110F17D0CC
:1007D000BCF1120F2AD119E0B8F5881F19D006DC38
:1007E000B8F5803F15D0B8F5801F1FD111E0B8F5DE
:1007F000001F0ED0B8F5041F18D10AE0CB6815E031
:10080000CB681B1D12E0CB6808330FE0CB680C33BC
:100810000CE08B682BB1012B4FF0080303D045612E
:1008200004E0042302E0056100E00023FF2A01D870
:10083000064601E000F104064FEA840501D9A5F15E
:100840002005D6F8008007FA05FC28EA0C0803FA10
:1008500005F548EA0508C6F800804D68ED0062D548
:10086000374DAE6946F00106AE61AD6924F003066E
:1008700005F001050095334D06EB050CDCF808503A
:10088000A607360F07FA06F825EA0805DFF8B8804C
:10089000404503D14FF0000817E044E0DFF8AC809A
:1008A000404502D14FF001080FE0DFF8A480404539
:1008B00002D14FF0020808E0DFF89880404502D1ED
:1008C0004FF0030801E04FF0040808FA06F848EA80
:1008D0000508CCF808804D68D9F80060ED024D4657
:1008E00001D5164300E096432E604D68DAF80060AB
:1008F000AD02554601D5164300E096432E604D6883
:10090000DBF80060AD035D4601D5164300E0964379
:100910002E604D68DEF80060ED03754601D5164384
:1009200000E096432E60641C0D682A46E5407FF483
:1009300031AFBDE8F88F000008040140000011103D
:10094000001002400000014000080140000C01407E
:1009500000100140001401400AB101617047090410
:10096000FBE7000001488068704700003800002065
:1009700070B510480168104A1278114401600F4C9C
:100980006078401CC0B26070012812D1A0780025A8
:10099000012805D1A570042209490A4801F0AEF9E1
:1009A000E078012804D105220749084801F0A6F99A
:1009B000657070BD4000002038000020300000202D
:1009C00018000020B802002048000020700200201B
:1009D000074810B5016841F010010160032000F0E4
:1009E00075F80F2000F006F800F024F8002010BD84
:1009F0000020024070B50D4D04464FF47A712878FE
:100A0000B1FBF0F00A490968B1FBF0F000F0DCFA44
:100A100048B9102C07D200222146501E00F036F8AB
:100A200000206C6070BD012070BD00003800002007
:100A3000440000200C4808B5816941F00101816142
:100A4000816901F001010091C16941F08051C161EA
:100A5000C06900F0805000900448416821F0E061D6
:100A600041F00071416008BD0010024000000140EB
:100A7000002809DB00F01F0201219140400980009D
:100A800000F1E020C0F8001170470000F0B40E4BF8
:100A90001B680C46C3F30223C3F10705042D00D9DC
:100AA0000425191D072901D2002300E0DB1E0126C1
:100AB00006FA05F1491E214099409E40761E1640D7
:100AC0003143F0BC02F088B80CED00E0064900F0BC
:100AD000070208684FF6FF03184040EA0220034A65
:100AE00010430860704700000CED00E00000FA05BC
:100AF0002DE9F0470F46050061D0434E306800F005
:100B00000700B84209D2306820F00700384330604F
:100B1000306800F00700B84251D128683B4C81078B
:100B200012D5400703D5606840F4E0606060287823
:100B3000000703D5606840F4605060606068A96891
:100B400020F0F000084360602878C00728D068686B
:100B5000012810D02168022810D0890700292EDA38
:100B6000616821F0030101436160FFF7FBFE8046ED
:100B700041F288390DE021688903EFE78901EDE74B
:100B8000FFF7F0FEA0EB0801494502D90320BDE8BC
:100B9000F0876068696800F00C00B0EB810FEFD15E
:100BA000306800F00700B8420BD9306820F0070029
:100BB00038433060306800F00700B84201D00120AF
:100BC000E5E72878400705D56068E96820F4E0602B
:100BD000084360602878000706D56068296920F41A
:100BE000605040EAC100606000F038F86168084A6F
:100BF000C1F30311515CC84006490860064800680B
:100C0000FFF7F8FE0020C2E700200240001002407B
:100C1000CC390008440000203C000020044805496D
:100C200000684968044AC1F30221515CC84070471A
:100C30004400002000100240DC3900080448054947
:100C400000684968044AC1F3C221515CC84070473A
:100C50004400002000100240DC3900080E4A5168B0
:100C60000E4801F00C03042B11D0082B0FD10C48B7
:100C7000C1F38343C903C05C0AD55168084AC1F374
:100C80004041921E515C054A5043B0FBF1F0704761
:100C900004494843704700000010024000127A00E7
:100CA000BC39000800093D002DE9F84F040070D060
:100CB0002078C04DC00749D06868C0F38100012882
:100CC00007D06868C0F38100022809D16868C003B2
:100CD00006D52868800339D560680028E7D035E05C
:100CE0006068B0F5803F0BD010B1B0F5A02F11D0E7
:100CF000286820F480302860286820F4802002E0F2
:100D0000286840F480302860606890B1FFF72AFEC0
:100D100006460AE0286840F480202860F0E700BF1B
:100D2000FFF720FE801B642873D828688003F7D55E
:100D30000CE0FFF717FE064605E000BFFFF712FEC6
:100D4000801B6428F0D828688003F7D420789A4E56
:100D500080074FF001094FF0000839D5686810F09E
:100D60000C0F07D06868C0F38100022809D16868B9
:100D7000C00306D42868800714D52069012808D14B
:100D800010E02069B0B1C6F80090FFF7EBFD074610
:100D900005E00AE1FFF7E6FDC01B0228C4D8286879
:100DA0008007F7D52868616920F0F80040EAC100A3
:100DB00028600DE0C6F80080FFF7D4FD074604E088
:100DC000FFF7D0FDC01B022823D828688007F7D47E
:100DD000207800072CD57948A169D9B1C0F80090D6
:100DE000FFF7C0FD074604E0FFF7BCFDC01B02286B
:100DF0000FD8686A8007F7D571484FF4FA51006838
:100E0000B0FBF1F0009000BF0098411E0091FAD2B3
:100E10000EE080E0C0F80080FFF7A4FD074604E084
:100E2000FFF7A0FDC01B022875D8686A8007F7D4B9
:100E30002078400760D5E8690027C00008D4E86939
:100E400040F08050E861E869012700F08050009090
:100E50005C480168C90513D40168834641F4807178
:100E60000160FFF77FFD824606E000BFFFF77AFDD5
:100E7000A0EB0A0064284ED8DBF80000C005F5D5C9
:100E8000E06801280AD008B1052813D0286A20F0AC
:100E900001002862286A20F0040002E0286A40F07D
:100EA00001002862E06841F2883B98B1FFF75AFDE3
:100EB00082460BE0286A40F004002862EEE700BF9B
:100EC000FFF750FDA0EB0A0159455AD8286A800760
:100ED000F6D50CE0FFF746FD824605E0FFF742FD40
:100EE000A0EB0A0159454CD8286A8007F6D41FB1F7
:100EF000E86920F08050E861E06988B36968C1F36F
:100F00008101022944D00228C6F8608004D0FFF78E
:100F100029FD044638E034E0FFF724FD074604E0ED
:100F2000FFF720FDC01B02282BD828688001F7D4CA
:100F3000206AB0F5803F05D16868A16820F40030D0
:100F400008436860D4E908010843696821F4741112
:100F500008436860C6F86090FFF704FD044606E0A9
:100F600025E000BFFFF7FEFC001B022809D8286817
:100F70008001F7D51BE000BFFFF7F4FC001B02283F
:100F800002D90320BDE8F88F28688001F4D40EE070
:100F90000128F7D06868226A00F48031914204D1B8
:100FA000616A00F47010884201D00120EAE7002055
:100FB000E8E7000000100240000042428004424284
:100FC000440000200070004010B5401EB0F1807F4A
:100FD00001D3012010BD4FF0E02460610F216017A4
:100FE00001F0FAFD0020A06107202061002010BD63
:100FF0007047704710B590F83C20012A22D001229A
:1010000080F83C20CA688C6822F4407222434C6805
:1010100022F4806222430C6822F4006222430C69AD
:1010200022F4805222434C6922F400522243C969BF
:10103000002322F480420A4301684A6480F83C306D
:10104000002010BD022010BD70B590F83C20012A90
:1010500026D0012480F83C40022280F83D2003681D
:101060005A689D6822F070060A6832435A600D4B38
:1010700002689A4208D0B2F1804F05D00A4B9A42DA
:1010800002D00A4B9A4204D1496825F080031943E3
:10109000916080F83D40002180F83C10084670BD0A
:1010A000022070BD002C01400004004000080040F8
:1010B00010B5040003D094F83D0010B107E0012002
:1010C00010BD002084F83C00204600F01FF80220EC
:1010D00084F83D00211D206801F03AFA012084F8CF
:1010E000460084F83E0084F83F0084F8400084F80D
:1010F000410084F8420084F8430084F8440084F8F6
:10110000450084F83D00002010BD000008B50168CE
:101110001048B1F1804F0BD00F4A914207D1C169FD
:1011200041F00201C161C06900F00200009008BDF9
:10113000C16941F00101C161C069002200F00100F4
:10114000009011461C20FFF7A1FCBDE808401C20C0
:10115000FFF78EBC001002400004004090F83D10E4
:10116000012901D001207047022180F83D1001685B
:10117000CA6842F00102CA6000680B49884208D080
:10118000B0F1804F05D00949884202D00849884211
:1011900004D1816801F00701062903D0016841F0FC
:1011A0000101016000207047002C01400004004054
:1011B000000800400168CA6822F00102CA600168A4
:1011C0000A6A41F211131A4207D10A6A9B101A42A5
:1011D00003D10A6822F001020A60012180F83D1063
:1011E0000020704770B5044690F83C0000250128A7
:1011F00017D0012684F83C60022084F83D00206866
:10120000826822F0770222F47F42826008685028C8
:1012100038D00DDC20284FD005DC90B3102811D138
:101220004AE0022070BD302846D040280AD13BE079
:1012300060282FD070280DD0B0F5805F03D0B0F5B6
:10124000005F12D0012584F83D60002084F83C0046
:10125000284670BDCB68D1E90121206801F0C1F9B1
:101260002068816841F0770109E0CB68D1E901216C
:10127000206801F0B6F92068816841F480418160FE
:10128000E1E719E0CA684968206801F05FFA502177
:10129000206806E0CA684968206801F068FA6021A1
:1012A000206801F0A8F9CEE7CA684968206801F013
:1012B0004DFA40212068F4E7226801461046F0E725
:1012C0002DE9F0410D46040003D094F83D0018B11B
:1012D00008E00120BDE8F081002084F83C002046B1
:1012E00000F040F8022084F83D002068816844F254
:1012F000070291438160211D206801F029F92268CD
:1013000090689169166A2B68AF69034340F2033015
:10131000814341EA0721A868EF6908434FF6FC4181
:101320008843E96840EA0720014328692F6A0001E1
:1013300040EA0730084369686D6926F0220646EAEC
:101340000515294393602268906154F8460B0162A9
:10135000012004F81F09E0752076E0762077A0755B
:101360000020B7E700B585B00021009101910291FE
:10137000039100680D49884216D10D48C16941F0BA
:101380000401C161C16901F004010491816941F066
:10139000080181618069694600F008000490C0205E
:1013A00000900448FFF7E8F905B000BD00080040D0
:1013B00000100240000C014070B590F83E600446F9
:1013C00090F83F5090F8423090F84320022021B12D
:1013D00004290ED0012E1BD114E0012E18D1012BAF
:1013E00016D184F83E0084F84200012200212068D2
:1013F00020E0012D0CD1012A0AD184F83F0084F8A5
:10140000430014E0012D03D1012B01D1012A01D0A9
:10141000012070BD84F83E0084F83F0084F842004B
:1014200084F8430001220021206801F0CDF8012258
:101430000421206801F0C8F82068016841F001012A
:101440000160002070BD70472DE9F041044600683E
:10145000C66805694FF00007A90713D5B10711D574
:10146000F91E0161012020772068806980072046ED
:1014700002D0FFF7E8FF04E000F0CAF8204600F0D1
:101480006FF92777680716D5700714D521686FF0B4
:1014900004000861022020772068806910F4407FF2
:1014A000204602D0FFF7CFFF04E000F0B1F820465D
:1014B00000F056F92777280715D5300713D521688E
:1014C0006FF008000861042020772068C069800759
:1014D000204602D0FFF7B7FF04E000F099F820465D
:1014E00000F03EF92777E80616D5F00614D52168F6
:1014F0006FF010000861082020772068C06910F4A0
:10150000407F204602D0FFF79EFF04E000F080F805
:10151000204600F025F92777E80708D0F00706D025
:1015200021686FF001000861204600F069F9280683
:1015300008D5300606D521686FF080000861204686
:10154000FFF756FD680608D5700606D521686FF0CE
:1015500040000861204600F09FF9A8060AD5B006B1
:1015600008D521686FF0200008612046BDE8F041F1
:10157000FFF73FBDBDE8F08110B586B000210091B6
:101580000191029103911D4B02681D4902241D48DF
:101590009A420ED18A6942F004028A6189690394F1
:1015A00001F0040104914FF43061CDE90014694663
:1015B0001FE0154B9A421ED18A6942F004028A61EB
:1015C0008A6902F0040204928A6942F008028A6180
:1015D0008969039401F008010491C021CDE9001448
:1015E0006946FFF7C9F80320CDE9000469460748BA
:1015F0000394FFF7C1F806B010BD0000002C0140B5
:10160000001002400008014000040040000C0140AE
:10161000704770B5044690F83C0000260D4601283E
:101620000FD0012084F83C006AB1042A1DD0082A9A
:101630002FD00C2A3FD00126002084F83C003046F1
:1016400070BD022070BD206800F0DEFF2068816957
:1016500041F0080181612068816921F00401816104
:10166000206881692A69114311E0206800F0F4FFC5
:101670002068816941F4006181612068816921F4F9
:1016800080618161206881692A6941EA0221816162
:10169000D2E7206801F00CF82068C16941F0080128
:1016A000C1612068C16921F00401C1612068C1697C
:1016B0002A69114311E0206801F026F82068C16909
:1016C00041F40061C1612068C16921F48061C16198
:1016D0002068C1692A6941EA0221C161ACE710B5FD
:1016E000040003D094F83D0010B107E0012010BDC4
:1016F000002084F83C00204600F01EF8022084F808
:101700003D00211D206800F023FF012084F84600E1
:1017100084F83E0084F83F0084F8400084F84100DB
:1017200084F8420084F8430084F8440084F84500BB
:1017300084F83D00002010BD08B5006806498842C5
:1017400008D10648816941F400618161806900F433
:101750000060009008BD0000002C01400010024015
:101760007047000010B50446022249B104290ED08A
:10177000082913D094F84100012816D0012010BD8B
:1017800094F83E000128F9D184F83E200FE094F847
:101790003F000128F2D184F83F2008E094F840008F
:1017A0000128EBD184F8402001E084F84120012297
:1017B000206800F009FF0F492068884203D1426C7D
:1017C00042F4004242642068884208D0B0F1804F61
:1017D00005D00949884202D00849884204D181686D
:1017E00001F00701062903D0016841F00101016001
:1017F000002010BD002C0140000400400008004003
:101800002DE9F0411C49884234D10846FFF7D2FC4B
:101810001A480068406A1A4C1A4D41B221711A4E9A
:101820002868B04202D0194A904201D14942217140
:1018300094F90410C18200F03DFD2F68F86A01F0B0
:101840006BFE01B2384600F0D5FD11492868884288
:1018500005D1C06A01F060FE01B20E4806E0B04258
:1018600006D1C06A01F058FE01B2084800F0C2FD7E
:1018700000202070BDE8F08198010020280200209F
:10188000300000201400002090000020CC00002038
:101890005400002008010020704770477047000086
:1018A000F8B5016804460868CA684B6910F00F0F64
:1018B0004FF0000559D003F0010602F4907737434A
:1018C00065D0C10705D0D10503D5616C41F0010198
:1018D0006164410705D5D90703D0616C41F002016D
:1018E0006164810705D5D90703D0616C41F004011B
:1018F0006164010707D502F02001314303D0616C18
:1019000041F008016164616C00293AD0800604D579
:10191000900602D5204601F00DF820684069616C00
:10192000C0F38010090700D460B3204600F0CDFF5B
:1019300020684069400621D52068143050E8001F17
:1019400021F0400140E80012002AF5D1E06BA8B177
:101950006D494163E06BFEF7A1FD002811D0E06BFB
:10196000416B01B0BDE8F040084783060FD59306F0
:101970000DD52046BDE8F84000F0DCBF2046FFF75B
:101980008DFFF8BD2046FFF789FF6564F8BD266B23
:101990002023012E7CD1C6067AD5D60678D50868D4
:1019A0004868009048694FF00206400640D5E16B58
:1019B000086840680004000CE8D0A28D8242E5D996
:1019C000E085886920282DD020680C3050E8001F61
:1019D00021F4807140E80012002AF5D1206814300B
:1019E00050E8001F21F0010140E80012002AF5D163
:1019F0002068143050E8001F21F0400140E8001238
:101A0000002AF5D184F84230256320680C3050E874
:101A1000001F21F0100140E80012002AF5D1E06B10
:101A2000FEF718FD6663A08DE18D401A81B22AE0B1
:101A3000A08DE18D401A81B2E08D0028A6D000294A
:101A4000A4D022680C3252E8000F20F4907042E8D3
:101A50000007002FF5D12068143050E8002F22F045
:101A6000010240E80027002FF5D184F842302563B9
:101A700020680C3050E8002F22F0100240E80023CC
:101A8000002BF5D166632046FFF707FFF8BDFFE79F
:101A900005062BD5150629D594F841002128F5D146
:101AA000A068B0F5805F01D12069B0B1206A411C07
:101AB0002162216800784860E08C401E0004000C20
:101AC000E084E3D12068C16821F08001C160206812
:101AD000C16841F04001C160D8E7206A0088C0F3C6
:101AE00008004860206A801C2062E5E74006CDD5EA
:101AF0005006CBD5CA68204622F04002CA6084F85E
:101B0000413000F04CF9C1E7CD27000870B5040062
:101B100004D094F84100002510B106E0012070BD0A
:101B200084F84050204600F023F8242084F8410037
:101B30002068C16821F40051C160204600F05CFFBC
:101B40002068016921F4904101612068416921F018
:101B50002A0141612068C16841F40051C160656497
:101B6000202084F8410084F842006563002070BDA5
:101B70002DE9F04186B00025009501950295039569
:101B80000446574F036857480221032280264FF02E
:101B90001008BB424DD1C36943F40033C361C3692C
:101BA00003F400330493836943F004038361806981
:101BB0004D4F00F0040004900420CDE90001039291
:101BC00069463846FEF7D8FD0820CDE9000569468C
:101BD00038460295FEF7D0FD454F4448C7E9000559
:101BE000C7E902563D617D61BD613846FD61FEF782
:101BF0004BFD08B1FEF7FCFBE7637C623C4F3B48C2
:101C000044371430C7E902563D617D61BD61FD6115
:101C1000C7E900083846FEF737FD08B1FEF7E8FBD4
:101C2000A7630022114626207C62FEF72FFF2620A4
:101C300051E0304FBB4250D1C36943F48023C361AC
:101C4000C36903F480230493836943F00803836129
:101C50008069039200F0080004903815CDE9000176
:101C6000254F69463846FEF787FDF814CDE9000593
:101C7000694638460295FEF77FFD1D4F1B488837A1
:101C80003C38C7E90005C7E902563D617D61BD6189
:101C90003846FD61FEF7F8FC08B1FEF7A9FBE763E3
:101CA0007C62134F1148CC375038C7E902563D616A
:101CB0007D61BD61FD61C7E900083846FEF7E4FCBF
:101CC00008B1FEF795FBA7630022114627207C622E
:101CD000FEF7DCFE2720FEF7CBFE06B0BDE8F08164
:101CE0000044004000100240000801406C00024027
:101CF0000003002000480040000C014090F84230F2
:101D0000202B01D00220704721B11AB100230363B8
:101D100000F0CEBE012070472DE9F041054619487C
:101D200001260027184C854210D118480178A529B2
:101D300004D000795A2801D0E67007E0E770FEF77A
:101D4000D5FA052211490F48FFF7D8FF1048854200
:101D50000BD110480078002807D10F480178A52939
:101D600002D1C0785A2802D0A670BDE8F081A770D1
:101D700000F0F6FABDE8F041042207490448FFF7F5
:101D8000BDBF00007002002030000020480000208D
:101D9000B8020020000000201800002070477047A3
:101DA000FEE70000154808B5416941F001014161B5
:101DB0004069002200F00100009011460C20FEF75F
:101DC00065FE0C20FEF754FE002211460D20FEF7A2
:101DD0005DFE0D20FEF74CFE002211461020FEF79E
:101DE00055FE1020FEF744FE002211461120FEF79A
:101DF0004DFEBDE808401120FEF73ABE001002403B
:101E00002DE9F04786B000252948009501950295F7
:101E10000395816941F020018161816901F0200110
:101E20000491816941F004018161816901F004013B
:101E30000491816941F0080181618069DFF8749043
:101E400000F008004FF481540490002221464846D7
:101E5000FEF782FDDFF860A04FF4405701223946BB
:101E60005046FEF779FD4FF4404800224146504667
:101E7000FEF772FD009401240326CDE9024669466F
:101E800048460194FEF778FC0220CDE90250CDE9E6
:101E9000007469465046FEF76FFCCDE90084CDE939
:101EA000024669465046FEF767FC06B0BDE8F0877B
:101EB0000010024000080140000C014010B592B033
:101EC00000240F941C2168461094FEF77DF9202110
:101ED00007A8FEF779F929482749016040F2CF2188
:101EE000C0E9011440F2CF71C0E903144461846178
:101EF000FFF7F5FB08B1FEF77BFA0F940FA91F4817
:101F00001094FFF7A1F808B1FEF772FA6020CDE94E
:101F1000000402940394049405940022694617482F
:101F20000694FFF776FB08B1FEF762FA04226946D1
:101F30001248FFF76EFB08B1FEF75AFA0C22694609
:101F40000E48FFF766FB08B1FEF752FA07940894B3
:101F500009944FF400500A94CDE90B4007A90748B3
:101F60000E94FFF747F808B1FEF742FA0348FFF76F
:101F700003FB12B010BD0000002C014050010020F6
:101F800010B586B00024174800940194029403947D
:101F900004944FF080410594016040F2CF21C0E9E4
:101FA000011440F2E731C0E903148461FFF780F8BF
:101FB00008B1FEF71DFA4FF48050009069460948B9
:101FC000FFF710F908B1FEF713FA049404A90548C5
:101FD0000594FFF739F8002801D0FEF709FA06B09A
:101FE00010BD00009801002010B58EB000240794A9
:101FF000089409940A940B941C2168460C94FEF7EB
:10200000E3F82A48284901604721C0E90114C721A3
:10201000C0E903148461FFF74BF808B1FEF7E8F953
:102020004FF48050079007A92048FFF7DBF808B16C
:10203000FEF7DEF91D48FFF752FB08B1FEF7D8F9AD
:102040000B940BA919480C94FEF7FEFF08B1FEF79C
:10205000CFF97020CDE900040294002269461348AC
:102060000494FFF7D6FA08B1FEF7C2F904226946D4
:102070000E48FFF7CEFA08B1FEF7BAF90822694612
:102080000A48FFF7C6FA08B1FEF7B2F90C22694612
:102090000648FFF7BEFA08B1FEF7AAF90348FFF7B2
:1020A0006BFA0EB010BD000000040040E0010020FB
:1020B00010B58CB024216846FEF786F80024164837
:1020C000099414490A94C0E900144FF6FF71C0E95D
:1020D0000241046184610120CDE90004CDE90204DC
:1020E0000F210491CDE90540CDE9074169460A4831
:1020F000FFF7E6F808B1FEF77BF9099409A906484D
:102100000A94FEF7A1FF002801D0FEF771F90CB088
:1021100010BD000000080040280200200C4810B547
:102120000A4901604FF4E1314160002181600C22D5
:10213000C160C0E904128161C161FFF7E7FC0028BA
:1021400003D0BDE81040FEF753B910BD0044004075
:10215000700200200C4810B50A4901604FF4E131CB
:102160004160002181600C22C160C0E904128161DC
:10217000C161FFF7CBFC002803D0BDE81040FEF79B
:1021800037B910BD00480040B8020020FEE700004B
:1021900010B51A4901201A4C08700022202120464F
:1021A000FEF7DAFB012211032046FEF7D5FB154CA2
:1021B0000122D1032046FEF7CFFB00224FF48041DD
:1021C0002046FEF7C9FB00210F48FFF7CBFA042198
:1021D0000D48FFF7C7FA08210B48FFF7C3FA0C2197
:1021E0000948FFF7BFFA084900200A6850630A68E7
:1021F00090630A68D0630968086410BD100000206D
:1022000000080140000C0140E00100202DE9F047EA
:102210000646084601F02AF81E4A1F4B00F03EFE13
:102220004FF0FF3201F05DFB894605464C463046D3
:1022300001F01CF88846064623462A4600F02CFF8B
:1022400000F04AFD154F394601F0CEF901F064F96E
:1022500004B22146124800F0CBF82A464B463046DD
:10226000414600F06BFD00F037FD394601F0BCF946
:1022700001F052F905B229460A4800F0B9F829469A
:10228000094800F0B5F82146BDE8F047074800F0DE
:10229000AFB800009A9999999999C93F917E3142B6
:1022A0005400002090000020CC00002008010020F5
:1022B000FEE700002DE9F0410446B0F91800B4F93A
:1022C0001610401A01F064F92063656B064601217F
:1022D000284601F034FB314601F052FAA16B00F0C0
:1022E000F1FFA16A01F080F907463146606A01F00A
:1022F0007BF980462946304601F04CFA216A01F00C
:1023000073F9414600F0DEFF394600F0DBFF01467D
:10231000E061E06A00F0D6FFE0620549C4E90D65BE
:10232000884202DC0349884200D9E162BDE8F081BD
:1023300000003443000034C3704700000249962077
:102340000968886370470000500100200348782125
:10235000026851630068B421016470475001002095
:102360002DE9F04113480078012806D0124C20785E
:10237000A52802D1E0785A2802D00020BDE8F081DB
:102380006078803801F004F90C4F394601F002F80A
:102390000B4E05463060A078803801F0F9F83946D8
:1023A00000F0F8FF0146B0602846FFF72FFF01203C
:1023B000E4E7000000000020180000200000C842F0
:1023C0004401002070470000084810B50268FA2157
:1023D000516300683221016400210448FFF7C2F90B
:1023E000BDE810400C210148FFF7BCB950010020A6
:1023F0000183704770B5002903DD00BF4FF0010273
:1024000001E04FF0000201DCC1F100010CB20D2C23
:1024100000DA0024017B104D01290BD002290FD0D6
:10242000032913D0042904D1114600F0B3F9286818
:10243000046470BD114600F0ADF92868446370BDB6
:10244000114600F0A7F92868846370BD114600F0BA
:10245000A1F92868C46370BDE0010020184901207B
:10246000184A087320200A608880174808621748B5
:102470004862174888620020C8613C3102230B7310
:102480000A6092148A80134A0A62134AC1E9092039
:10249000C8613C3103220A73104A9B030A608B8097
:1024A000086248628862C8613C3104230B730A6089
:1024B0001A038A80086248628862C8617047000017
:1024C00054000020000801404A0C423F3D0A973F5B
:1024D00004568E3E90318F3FCE19A13F000C014033
:1024E000FEF746BA30B58FB028216846FDF76CFE7E
:1024F00014210AA8FDF768FE01210804CDE90010A7
:102500000024029402250491CDE907504FF4E01015
:1025100009906846FEF7C8FB08B172B6FEE70F20C7
:10252000CDE90A054FF48060CDE90C4002210AA8EC
:102530000E94FEF7DDFA002801D072B6FEE70FB068
:1025400030BD70470148FEF77FBF000098010020B2
:10255000F0B50268194B1A4C1A4D4FF0804798425B
:1025600005D0B84203D0A04201D0A84203D122F046
:1025700070064A683243984205D0B84203D0A04260
:1025800001D0A84203D122F44074CA6822434C69A6
:1025900022F08002224302608A68C2620A68826274
:1025A000984201D109690163012141610169C907AB
:1025B00003D0016921F001010161F0BD002C01404F
:1025C000000400400008004010B501F01F03012185
:1025D000046A99408C430462016A9A401143016283
:1025E00010BD10B5846842EA032224F47F440A43F4
:1025F0002243826010BD826822F070020A4342F0DA
:10260000070181607047000030B5036A026A22F05A
:10261000010202624268846924F073050C682C434D
:1026200023F002058B682B430A4DA8420BD123F0FF
:102630000805CB6822F440722B434D6923F0040354
:1026400015438A692A434260846149684163036291
:1026500030BD0000002C014030B5026A036A23F04F
:1026600010030362436884690D6824F4E64444EA75
:1026700005248D6822F0200242EA05120B4DA84283
:102680000ED1CD6822F0800242EA05124D6923F492
:10269000406343EA85038D6922F0400243EA8503E3
:1026A0004360846149688163026230BD002C01404F
:1026B00030B5036A026A22F4807202624268C46919
:1026C00023F4007324F073050C682C438D6843EAEF
:1026D00005230C4DA8420ED1CD6823F4006343EAD4
:1026E00005234D6922F4405242EA05128D6923F414
:1026F000806342EA05124260C4614968C1630362B3
:1027000030BD0000002C014030B5046A026A22F49A
:10271000805202624268C3690D6823F4E64343EACB
:1027200005238D6824F4005444EA0534064DA8427C
:1027300004D14D6922F4804242EA85124260C361AD
:1027400049680164046230BD002C014010B5036A81
:10275000046A24F001040462846924F0F00444EA69
:10276000021423F00A020A438461026210BD10B50C
:10277000036A046A24F010040462846923F0A0034D
:1027800024F4704444EA023243EA01118261016296
:1027900010BD00000C4A012902F1B40306D0002943
:1027A00011D190420AD0984208D003E0904201D063
:1027B000984203D181880068002202E08188006885
:1027C0000122FEF7C9B870475400002010B5406AD6
:1027D0000021C185C184FFF761F810BD70B5446A5E
:1027E0002068406994F84110C0F3C01000252129E9
:1027F00004D118B1E584204600F08EF820684069C5
:1028000094F84210C0F38010222904D118B1E58554
:10281000204600F05AF8606C40F0100060642046DA
:10282000FFF73CF870BD10B50146406A09680968B9
:102830004FF0000289062ED4C28501680C3151E8A0
:10284000003F23F4807341E80034002CF5D1016887
:10285000143151E8003F23F0010341E80034002C1B
:10286000F5D10168143151E8003F23F0400341E8FD
:102870000034002CF5D1202180F84210016B012991
:1028800009D101680C3151E8003F23F0100341E801
:102890000034002CF5D14263016B012902D0FFF70F
:1028A0003BFA10BD818DFEF7F8FF10BD10B5406AF0
:1028B00001214163016B012902D0FFF76FFA10BDBE
:1028C000818D4908FEF7E9FF10BD01680C3151E820
:1028D000002F22F4907241E80023002BF5D101680B
:1028E000143151E8002F22F0010241E80023002BAF
:1028F000F5D1016B012909D101680C3151E8002F94
:1029000022F0100241E80023002BF5D1202180F8AD
:10291000421000210163704701680C3151E8002F1B
:1029200022F0C00241E80023002BF5D1202180F8DD
:102930004110704708B590F84210222901D00220BA
:1029400008BD82684FF480539A4201D1016921B1D8
:10295000816A9A421BD04AB10AE00268816A5268D1
:10296000C2F308020A80816A891C08E0026972B118
:102970000268526802F07F020A70816A491C816213
:10298000C18D491E0904090CC18503D01BE00268F2
:102990005268F1E70168CA6822F02002CA60016843
:1029A000CA6822F48072CA6001684A6922F0010292
:1029B0004A61202180F8421000214163026B012A04
:1029C00003D0FFF7A9F9002008BD016301680C31AD
:1029D00051E8002F22F0100241E80023002BF5D12E
:1029E00001680A68D20602D50A6849680091818D9B
:1029F000FEF753FFE7E7000070B504460068016981
:102A0000E26821F44051114301612169A068084343
:102A1000616908432168CA6841F20C639A43024322
:102A2000CA6020684169A26921F440711143416183
:102A30001E492068884202D1FEF700F901E0FEF746
:102A4000EDF800EBC00101EB00126068642180002A
:102A5000B2FBF0F3B3FBF1F36FF018067343B2FB74
:102A6000F0F5B2FBF0F605EB8305322303EB051519
:102A7000B5FBF1F5B6FBF1F605F0F00505EB061533
:102A8000B2FBF0F6B2FBF0F0B0FBF1F06FF0180221
:102A9000504306EB800003EB0010B0FBF1F021681F
:102AA00000F00F002844886070BD0000003801402D
:102AB00038B5816204468285002013466064222274
:102AC00084F84220E56B1B4AAA62E56B1A4AEA6267
:102AD000E56B1A4A2A63E26B50630A462168E06B91
:102AE000091DFDF7FFFD206801684068009020691E
:102AF00048B120680C3050E8001F41F4807140E874
:102B00000012002AF5D12068143050E8001F41F06F
:102B1000010140E80012002AF5D12068143050E885
:102B2000001F41F0400140E80012002AF5D10020CA
:102B300038BD000027280008AD280008DD27000860
:102B40000148FEF7ADBE0000700200200148FEF70C
:102B5000A7BE0000B8020020FEE7000010B56438F0
:102B600000B26FF0630482290DDD64211648FFF77F
:102B700041FC21461548FFF73DFC21461448FFF76C
:102B800039FC64211AE0462909DA21460E48FFF78C
:102B900031FC64210D48FFF72DFC64210AE0400060
:102BA00004B221460848FFF725FC21460748FFF7F5
:102BB00021FC21460648FFF71DFC2146BDE81040D8
:102BC0000448FFF717BC00005400002090000020CC
:102BD000CC000020080100200907090E002804DBB2
:102BE00000F1E02080F80014704700F00F0000F1C1
:102BF000E02080F8141D7047FDF7EAFEFFF772FC35
:102C0000FFF7FEF8FFF7CEF8FFF788FAFFF756F95F
:102C1000FFF7B6F9FFF7E8F9FFF74AFAFFF79AFA74
:102C2000052224492448FFF769F8FFF717FCFFF74E
:102C3000AFFAFFF7C9FB3C212048FEF7BDFBDFF8E8
:102C40008080204D204C214F4FF0020901264FF487
:102C5000805A4FF4005B287898F800100843FAD1A6
:102C60002E702078012814D00228F4D1267000227A
:102C700051463846FDF770FE012259463846FDF7A9
:102C80006BFE0220FDF766FD114800BFFDF7B2FBA9
:102C9000E1E784F80090012251463846FDF75CFEDA
:102CA000012259463846FDF757FE0220FDF752FD36
:102CB0000848EBE7480000207002002028020020AE
:102CC000000000203000002010000020000C014017
:102CD000900000205400002021F00042A2F1605238
:102CE000B2F5801F01F0004328BFD2F17F6C0BD9F1
:102CF0005FEA001C43EAC20242EB507018BF704703
:102D000028BF20F001007047B2F5801FBCBF1846F5
:102D100070474FEA410C1CF5001F02D2084600F034
:102D20002ABD70B500F064F900000089FFF7F6BF16
:102D30004FF00040A0F580007047000010B591EA08
:102D4000030F48BF83F0004300F1AE81841A71EB9A
:102D5000030C05D2121943EB0C03001B61EB0C01B1
:102D6000DFF824E14FEA1154A4EB135C1EEA430F91
:102D700018BF9EEA445F73D023EA0E03DCF1200EF5
:102D800021EA045143F4801332D322FA0CFE10EBF3
:102D90000E0023FA0CFE41EB0E01CCF1200E03FADB
:102DA0000EFE10EB0E0051F10001B1F5801FCCF1C9
:102DB000200E32D201EB045112FA0EF2BDE810409F
:102DC00058BF7047401C38BF5FEA420218BF7047C7
:102DD000002814BF20F0010041F100014FEA410337
:102DE00013F5001F38BF7047A1F1C04100F04EB984
:102DF000012A43EB0302ACF1200CDCF11F0E32BFC1
:102E00004FF0000E23FA0CF310EB030041EB0451DA
:102E1000B4EB115FD0D0A1EB045101F5801149084A
:102E20005FEA300001EB04510ED350F1000038BFCF
:102E300012FA0EFE08D1BDE81040C9E7401C38BFA9
:102E40005FEA4202CAD1C3E7BDE810404FEA41033E
:102E500013F5001F38BF7047A1F1C04100F016B94B
:102E60009EEA445F08D011EA5E0FBDE8104004BF3F
:102E700001F0004100207047BDE8104070B500F03F
:102E8000B7F800BF64FBBE3E0000E0FF02494FF010
:102E9000000000F0F4BC00BF0000F87FDFF848C17C
:102EA00070B51CEA111E1EBF1CEA13159EEA0C0F1A
:102EB00095EA0C0F00F06F8081EA030423EA4C13BB
:102EC0004EEAD47E21EA4C1141F4801143F4801380
:102ED000AE44A1FB024CA0FB0365AEF17F7E361928
:102EE00055EB0C05A1FB034C4CF10003A0FB021CAD
:102EF00016EB0C06654153F10003094218BF46F07A
:102F0000010613F4007F0BD14FEA03314FEA05307D
:102F1000340341EA155140EA16506FF003020AE00B
:102F20004FEAC3214FEAC520F40241EA555140EA75
:102F300056506FF0020202EB2E4201EB025585EA79
:102F4000CE710AD05FEA440C18BF24F0004450F15F
:102F5000000041F1000120EAD47040F2FE7C62459D
:102F600000D270BDA84214BF4FF080444FF04044DF
:102F7000002E08BF0024BEF1806FA8BFA1F1C041A0
:102F8000BDE8704080F282804FF0000001F1C04146
:102F900001F0004170479EEA0C0F0CEA131518BFB0
:102FA00095EA0C0F06D04FF0000081EA030E0EF0F8
:102FB000004170BD00F01CF88900013E00F007B828
:102FC00000F009B84FEA430C5FEA5C5C08D081EA84
:102FD000030100F05BB84FEA410C5FEA5C5CF6D19C
:102FE0004FF00000014970470000FF070000F87F24
:102FF0000EF1020E2EF0030E5EF8046B364205D47D
:10300000012A43EB030515F5001F12D8012841EBF7
:10301000010C1CF5001F0CD80ED14FEAD17C15F520
:10302000001F0CEB4C0C0CF1020C08BF4CEBD37CDA
:1030300004E04FF0080C01E04FEAD37C0CEB4C05A8
:1030400026FA05F606F00706B6F1040C06D20EEBDA
:10305000860CBDE870404CF0010C6047DFE80CF0D6
:10306000090B02024FF000414FF00000A1F50021D2
:1030700070BD19461046012851EB010418BFD4F564
:10308000001484BF002001F0004170BD0808A0F5C5
:1030900000114FEA3101704710B591EA030F48BFA4
:1030A00083F000433FF552AE841A71EB030C07D254
:1030B00012198CF0004C43EB0C03001B61EB0C016C
:1030C000DFF8A4E14FEA1154A4EB135C1EEA430FAE
:1030D00018BF9EEA445F00F0B08023EA6E035242BC
:1030E00021EA0451C3EB6E0338BF5B1EDCF1200EF6
:1030F00025D322FA0CFE10EB0E0043FA0CFE41EB36
:103100000E01CCF1200E03FA0EFE10EB0E0051F171
:103110000001CCF1200E29D412FA0EF201EB045179
:10312000BDE8104058BF7047401C1CBFB2F1004FB3
:10313000704700280CBF491C20F00100704712EBBB
:10314000020E43EB030218BF4FF0010E4EEA42029B
:10315000ACF1200CDCF11E0E54D943FA0CFE10EB3E
:103160000E0051F1FF31CCF11E0ED5D50EF1010E3E
:1031700012FA0EFE404141EB010101EB445C5FEAB3
:103180005C5C10D910EBDE7001EB045138BFBEF16E
:10319000004FBDE8104018BF704700280CBF491C05
:1031A00020F00100704730D24FEAD42C11F5001105
:1031B00024F400641BD0B1FA81F20B3AA41AA41EC5
:1031C000D2F12003914030FA03F31943904001EB10
:1031D000CC71002C01EB0451BDE81040A8BF704732
:1031E00001F1C0414FF0000001F000417047B0FA1A
:1031F00080F310FA03F100D110BDE41A173C480522
:10320000C90AE4E701EB045110BD491001EB045178
:10321000BDE810404FEA300002E04FF00001704777
:103220004A0008BF0042F8D0B2F5001F28BF70471F
:1032300001F000414FF0000070479EEA445F07D064
:1032400011EA5E0FBDE8104004BF00210020704766
:10325000BDE8104070B5FFF7CBFE00BF40DFF63E83
:1032600083F00041104670470000E0FF43004FEA42
:10327000D30C4FEA3C0C43401FBF40070CF1605198
:1032800013F0FE4F70471CF0006F03D100200CF0CC
:10329000004170470CF0004343EA507010B540EA1B
:1032A000CC0000F022FA00BF000000924FEA0001BB
:1032B000FFF7ECBE4FF000414FF00000A1F50021F8
:1032C0007047000090EA010F48BF81F0004100F113
:1032D0006882421A3CBF801A89184FEAD0524FF0D8
:1032E0007F4C1CEA410FA2EBD15318BF9CEA026F3E
:1032F00000F03B804FF0004C4CEA00204CEA0121EA
:1033000021FA03FC10EB0C0C1ED202F1FF325FEA33
:103310001C2040EBC25038BF70471CF07F0F4FEAB3
:10332000400C18BFBCF17F4F38BF7047C3F120037A
:10333000994008BF20F00100BCF17F4F38BF7047B3
:10334000A0F1C04000F017BA4FEA3C00000A40EB81
:10335000C25028BF1CF0FF0F4FEA400CE6D018BF48
:10336000BCF17F4F38BF7047EAE79CEA026F05D097
:1033700010EA5C0F08BF00F00040704710B500F085
:10338000B4F900BF64FBBE3E014800F078BA00BF4C
:103390000000C07F4FF47F0C1CEAD0121EBF1CEA55
:1033A000D11392EA0C0F93EA0C0F00F0858090EA9B
:1033B000010F48BF42F4807240F4000C41F4000059
:1033C0002CF07F4120F07F4000B58142A2EB030248
:1033D0000FF2081CACEB504EC0F100009EF800E06C
:1033E0004FEA4E0E00FB0EFC38BF49004FEA2C1C82
:1033F00002F5FA020CFB0EF34FEACE1E4FEA112C37
:103400004FEAC1210EEB635E42EB22420EFB0CFC45
:103410004FEA1C5300FB03114FEA112C4FEA013114
:103420000EFB0CFC4FEADC4C00FB0C11C14228BF28
:1034300009184CEB03335DF804EB10EB410143EB4F
:10344000C250B2F57C0F38BF704729D512F0F00F8B
:103450001CBF00F1C04000F0004070470081828333
:103460008485868788898B8C8D8E8F919293959693
:1034700097999A9C9D9FA0A2A3A5A7A8AAACAEB01D
:10348000B2B3B5B7B9BCBEC0C2C5C7C9CCCED1D422
:10349000D7D9DCDFE2E6E9ECF0F3F7FAFE00000052
:1034A0004FEA400C0CF1807CBCF17E4F28BF704786
:1034B000B0F1C04000F05FB990EA010F0CEAD113FF
:1034C00048BF42F48072624538BF634507D213F4A7
:1034D0007F0F16D080EA010000F00040704710B561
:1034E00000F003F9097EFC3E00F005B880EA010017
:1034F00000F00040704780EA010000F0004000F05A
:103500003AB912F47F0F04BF0248704780EA010005
:1035100000F031B90000C07F41000B0ED3F19E02D4
:1035200008D950F400034FEA032323FA02F048BFFE
:103530004042704710B500F0D8F800BF499224808F
:10354000002070476FF0004282EA200070470000C0
:10355000C10DD1F19E0206DB4FEA002343F0004388
:1035600023FA02F07047004207D54FEA4001B1F15B
:10357000FE4F02D24FF00000704710B500F0B5F8D2
:1035800049922480002070476FEA200070470000B5
:1035900010F0004148BF4042B0FA80F310FA03F245
:1035A000C3F19D030BD051EAC35101EB1220530626
:1035B00038BF704700F1010008BF20F001007047DC
:1035C000B0FA80F310FA03F2C3F19D030AD0D905D3
:1035D00001EB1220530638BF704700F1010008BF0D
:1035E00020F00100704700004FF47F0C1CEAD0125D
:1035F0001EBF1CEAD11392EA0C0F93EA0C0F00F0E5
:10360000478090EA010F48BF42F480724FF0004CAF
:103610004CEA00204CEA012102EB0302A0FB01135B
:10362000A2F50002002918BF43F001035B0028BF88
:103630004FEA330342EB22425FEA132C4CEBC250B9
:103640002EBFBCEB436FB2F57C0F70474FEA036CA3
:10365000BCF1004F08BF20F00100B2F57C0F38BF6D
:1036600070470BD582F0FF0212F5803FC8BF70474C
:1036700000F1C040D8BF00F00040704700F5000CDA
:103680005FEA4C0C48BF7047B0F1C04000F073B81F
:1036900090EA010F0CEAD11348BF42F480726245F0
:1036A00038BF634504D280EA010000F00040704753
:1036B00010B500F01AF800BF8900013E00F007B80D
:1036C00000F009B85FEA410C5FEA1C6C08D080EAA0
:1036D000010000F050B85FEA400C5FEA1C6CF6D1C4
:1036E0004FF00040A0F5800070470EF1020E2EF062
:1036F000030E5EF8044B244204D44FEA4102B2F1B7
:103700007F4F11D84FEA4003B3F17F4F0CD80ED151
:103710004FEAD07CB2F17F4F0CEB4C0C0CF1020C59
:1037200008BF4CEBD17C04E04FF0080C01E04FEAFD
:10373000D17C0CEB4C0324FA03F404F00704B4F13D
:10374000040C06D20EEB840CBDE810404CF0010CCA
:103750006047DFE80CF0070802024FF00040A0F5D8
:10376000800010BD0846420018BFD2F1807288BFA9
:1037700000F0004010BDFF2141EAD050C005704765
:1037800080F0004090EA010F7FF5A3AD81F0004189
:1037900000F007B890EA010F48BF81F000413FF503
:1037A00098AD421A04D882F00042A0EB0200114406
:1037B0004FEAD0524FF07F4C1CEA410FA2EBD1539D
:1037C00018BF9CEA026F4AD04FF0004C4CEA002030
:1037D0004CEA012121FA03FCB0EB0C0C0FD412F0DF
:1037E000FE0F36D05FEA4C001DD5001240EBC250F0
:1037F00038BF70471CF03F0F18BF70470BE0A2F1B5
:1038000001025FEA1C2040EBC25038BF70471CF039
:103810007F0F18BF7047C3F12003994014BF401EAB
:1038200020F00100704780084FEA122308BF70475C
:10383000B0FA80FCA2EB0C02CCF1280C60FA0CF080
:1038400093EA122F04BF00EBC25070474FEAC370D7
:103850007047130A5FEADC1008BF7047F6E79CEA7E
:10386000026F04D010EA5C0F08BF0020704710B54B
:10387000FFF73BFF40DFF63E81F0004070470CF061
:103880000F03092B08BF082000F07F800A2B0BD004
:10389000082B18BF704708BF1CF0400F0AD04FF02C
:1038A00000004FF0000170471CF0400F18BF4FF0B0
:1038B000004070471CF0100F08D020F0704300F05B
:1038C0007F4242EAD3014FEA4370704700F0604004
:1038D00021F07F4242EA000201F07F4040EA72702C
:1038E00070474FF0FF0C4CF4E06C1CEA11531CBF06
:1038F0009CEA030C9445C2BFDA4201EB02517047C7
:10390000002B0DD0BCF1000F0FD0002A01F00041B8
:10391000A4BF41F0E04141F07F614FF000007047EB
:1039200001F000414FF00000704750EA01334FF0C2
:103930009B0C18BF4CF0806C7FF4A8AA70474FF026
:10394000FF0212EAD0521CBF92F0FF038B42C2BFAB
:10395000D14200EBC1507047002A0AD0002B0BD097
:10396000002900F00040A4BF40F0FE4040F40000F9
:10397000704700F00040704743024FF00B0C18BF37
:103980004CF0806C7FF400AD70471CF4801F11D0A8
:103990001CF4E02F03D06FEACC31490070474FF0A0
:1039A0004050EFF3008222F0704242EA000282F3BC
:1039B000008870474FF000007047010202030405C1
:1039C000060708090A0B0C0D0E0F1010000000006E
:1039D00000000000010203040607080900000000BF
:1039E00001020304043A000800000020480000001F
:1039F000280100084C3A000848000020280A00006E
:103A00004401000800000000000000000000000069
:103A100000000000000000000000000000000000A6
:103A2000A5A5021122335A0000000000000000008A
:103A30000000000000000000000000000100000085
:0C3A4000100000000000000000127A00DE
:04000005080000ED02
:00000001FF
