S31508000000D00A00208D010008892B0008ED2600087B
S31508000010852B000891030008A92E0008000000009F
S31508000020000000000000000000000000212C00086D
S315080000308D040008000000001D2C0008232C000871
S31508000040A70100088D2B0008A7010008A7010008D2
S31508000050A70100081F2C00088F040008AD0400083B
S31508000060A7010008A7010008B7040008A7010008AF
S31508000070A7010008A70100084D0400085D04000850
S315080000806D0400087D040008A7010008A701000800
S31508000090A7010008A7010008A7010008C104000875
S315080000A02D2C00085D2C00084D2C00083D2C00085E
S315080000B06D2C00087D2C00088D2C0008A70100086F
S315080000C0A7010008A7010008A7010008A701000862
S315080000D0A7010008892E0008992E0008A701000824
S315080000E099040008A7010008A701000800F002F813
S315080000F000F03CF80AA090E8000C82448344AAF178
S315080001000107DA4501D100F031F8AFF2090EBAE875
S315080001100F0013F0010F18BFFB1A43F0010318472D
S31508000120484B0000684B0000103A24BF78C878C1D5
S31508000130FAD8520724BF30C830C144BF04680C60DF
S31508000140704700000023002400250026103A28BF27
S3150800015078C1FBD8520728BF30C148BF0B6070472B
S315080001601FB500F05DF81FBD10B510BD00F07EF894
S315080001701146FFF7F5FF03F077FB00F09CF803B490
S31508000180FFF7F2FF03BC00F0A1F80000094880471A
S3150800019009480047FEE7FEE7FEE7FEE7FEE7FEE75B
S315080001A0FEE7FEE7FEE7FEE704480549054A064B73
S315080001B0704700002B2C0008ED000008D004002032
S315080001C0D00A0020D0060020D00600204FF00002FA
S315080001D000B5134694469646203922BFA0E80C502F
S315080001E0A0E80C50B1F12001BFF4F7AF090728BF0A
S315080001F0A0E80C5048BF0CC05DF804EB890028BF86
S3150800020040F8042B08BF704748BF20F8022B11F0AE
S31508000210804F18BF00F8012B70477047704770472A
S3150800022070B5064C7C44064D7D4403E020682044A6
S315080002308047241DAC42F9D170BD0000604A000019
S31508000240604A000010B500F009F8006810BD10B546
S31508000250044600F003F8046010BD0000004870472B
S315080002607004002000487047700400207546FFF7A8
S31508000270F9FFAE4605006946534620F00700854655
S3150800028018B020B5FFF790FFBDE820404FF00006F4
S315080002904FF000074FF000084FF0000B21F0070160
S315080002A0AC46ACE8C009ACE8C009ACE8C009ACE8A3
S315080002B0C0098D46704710B50446AFF30080204646
S315080002C0BDE81040FFF75BBF7047000001491820E2
S315080002D0ABBEFEE72600020010B50446012C0AD183
S315080002E001220102124800F0D7FC0022E102104860
S315080002F000F0D2FC1AE0601C58B900224FF4807155
S315080003000B4800F0C9FC0122D102094800F0C4FCE0
S315080003100CE05CB900224FF48071054800F0BCFC83
S3150800032000224FF40061024800F0B6FC10BD000040
S315080003300008014010B50446012C0AD10122010229
S31508000340124800F0A9FC00226102104800F0A4FC43
S315080003501AE0601C58B900224FF480710B4800F06F
S315080003609BFC01225102094800F096FC0CE05CB99E
S3150800037000224FF48071054800F08EFC00224FF4ED
S315080003800071024800F088FC10BD0000000C014016
S3150800039000BFFEE710B50446012C0AD1012201036D
S315080003A0124800F079FC00226103104800F074FC42
S315080003B01AE0601C58B900224FF480510B4800F02F
S315080003C06BFC01225103094800F066FC0CE05CB99D
S315080003D000224FF48051054800F05EFC00224FF4DD
S315080003E00051024800F058FC10BD0000000C014006
S315080003F010B50446012C0AD101228103124800F0E7
S315080004004BFC0022E103104800F046FC1AE0601C91
S3150800041058B900224FF480410B4800F03DFC0122F8
S31508000420D103094800F038FC0CE05CB900224FF40F
S315080004308041054800F030FC00224FF40041024894
S3150800044000F02AFC10BD0000000C014010B502485F
S3150800045000F0C8F810BD00007403002010B502486B
S3150800046000F0C0F810BD00003003002010B50248A7
S3150800047000F0B8F810BD0000B803002010B5024817
S3150800048000F0B0F810BD0000FC030020704710B55E
S31508000490012000F05BFA10BD10B54FF4805000F053
S315080004A055FA4FF4005000F051FA10BD10B502206D
S315080004B000F04CFA10BD10B5102000F047FA10BD38
S315080004C010B5202000F042FA402000F03FFA8020C4
S315080004D000F03CFA10BD72B600BFFEE701460022E6
S315080004E091F82100022808D00420886300BF002064
S315080004F081F8200000BF012070470868006820F0D6
S315080005000E000B6818600868006820F001000B6888
S31508000510186091F8403001209840CB6B5860012054
S3150800052081F8210000BF002081F8200000BF104696
S31508000530E2E7000070B50446002594F82100022879
S3150800054003D00420A063012548E02068006820F055
S315080005500E00216808602068006820F00100216804
S3150800056008601F492068884201D1012026E01C49FD
S3150800057014312068884201D110201FE0184928311B
S315080005802068884201D1801518E015493C31206859
S31508000590884201D1801411E01149503120688842FF
S315080005A002D14FF4803009E00D4964312068884251
S315080005B002D14FF4801001E04FF0807008490839E5
S315080005C04860012084F8210000BF002084F820003C
S315080005D000BF606B10B12046616B8847284670BD26
S315080005E00800024070B50446E06B05682068066896
S315080005F094F84010042088402840002846D006F089
S315080006000400002842D02068006800F0200028B9BD
S315080006102068006820F004002168086057492068AF
S31508000620884201D1042027E05449143120688842C1
S3150800063001D1402020E0514928312068884201D163
S31508000640001519E04D493C312068884202D14FF423
S31508000650804011E0494950312068884202D14FF460
S31508000660802009E0454964312068884202D14FF468
S31508000670800001E04FF08060404908394860E06A30
S3150800068000287AD02046E16A884776E094F8401038
S31508000690022088402840A0B306F0020088B32068EC
S315080006A0006800F0200040B92068006820F00A00C1
S315080006B021680860012084F82100304920688842B2
S315080006C001D1022028E02D4914312068884201D141
S315080006D0202021E0294928312068884201D1401587
S315080006E01AE026493C312068884202D14FF400506E
S315080006F012E0224950312068884203D14FF4003075
S315080007000AE017E01D4964312068884202D14FF497
S31508000710001001E04FF0007018490839486000BF22
S31508000720002084F8200000BFA06A30B32046A16AE2
S31508000730884722E094F84010082088402840E0B115
S3150800074006F00800C8B12068006820F00E0021688D
S31508000750086094F8401001208840E16B4860012049
S31508000760A06384F8210000BF002084F8200000BFA1
S31508000770206B10B12046216B884770BD08000240E7
S315080007800146002209B901207047164B0868C01AAD
S315080007901423B0FBF3F08000086412480838C863D5
S315080007A0022081F821000868026843F6F070824347
S315080007B0D1E901031843CB6818430B6918434B6901
S315080007C018438B691843CB691843024308680260CB
S315080007D000208863012081F82100002081F820008C
S315080007E000BFD1E7080002402DE9F04104460D4656
S315080007F016461F464FF0000800BF94F8200001284F
S3150800080002D10220BDE8F081012084F8200000BF53
S3150800081094F8210001282CD1022084F82100002018
S31508000820A0632068006820F00100216808603B4644
S3150800083032462946204602F084FCE06A30B1206838
S31508000840006840F00E00216808600BE02068006828
S3150800085020F00400216808602068006840F00A005B
S31508000860216808602068006840F001002168086077
S3150800087006E000BF002084F8200000BF4FF0020801
S315080008804046BFE770B50546012D41D0202D18D04A
S31508000890402D03D0B5F5805F4DD125E0802127484E
S315080008A000F0F2F90446012C05D125480068401CE1
S315080008B02349086004E022480068401E2049086071
S315080008C03AE010211F4800F0DFF90446012C05D153
S315080008D01B484068401C1A49486004E018484068AC
S315080008E0401E1749486027E04FF40051164800F0AB
S315080008F0CBF90446012C05D111488068401C1049E3
S31508000900886004E00E488068401E0D49886013E040
S3150800091002210A4800F0B8F90446012C05D1084816
S31508000920C068401C0649C86004E00548C068401E07
S315080009300349C86000E000BF00BF70BD000C01405D
S31508000940A4000020000801400010014010B504462C
S3150800095004480068204020B1024804602046FFF79A
S3150800096091FF10BD140401402DE9F8470346002203
S3150800097094466EE14FF0010808FA02F4D1F80080B7
S3150800098008EA0400A0427DD1DFF8DCA2D1F8048091
S31508000990A8EB0A09D0453AD014DCB8F1030F50D0B9
S315080009A009DCB8F1000F31D0B8F1010F1CD0B8F14D
S315080009B0020F49D120E0B8F1110F18D0B8F1120F83
S315080009C042D11EE0B9F5881F25D006DCB9F5803F6F
S315080009D020D0B9F5801F37D11AE0B9F5001F18D015
S315080009E0B9F5041F30D117E0D1F80CC02DE0D1F8C5
S315080009F00C8008F1040C28E0D1F80C8008F1080CEA
S31508000A0023E0D1F80C8008F10C0C1EE000BF00BFF3
S31508000A1000BF00BF00BF00BFD1F80880B8F1000FC3
S31508000A2002D14FF0040C0BE0D1F80880B8F1010FA1
S31508000A3003D14FF0080C1C6102E04FF0080C5C6112
S31508000A4003E04FF0000C00E000BF00BFFF2801D80C
S31508000A50984601E003F104084646FF2802D84FEA03
S31508000A60820803E0A2F108084FEA88084746D6F844
S31508000A7000804FF00F0909FA07F928EA09080CFA65
S31508000A8007F900E088E048EA0908C6F80080D1F8C6
S31508000A90048008F08058B8F1805F7DD100BFDFF888
S31508000AA0CC81D8F8188048F00108DFF8C091C9F859
S31508000AB01880C846D8F8188008F00108CDF80080D4
S31508000AC000BF00BF4FEAB9384FEA920958F82950D3
S31508000AD04FEA82784FEA18794FF00F0808FA09F8B2
S31508000AE025EA0805DFF88881434502D14FF000085A
S31508000AF016E0DFF88081434502D14FF001080FE088
S31508000B00DFF87481434502D14FF0020808E0DFF8A8
S31508000B106C81434502D14FF0030801E04FF0040809
S31508000B204FEA82794FEA197908FA09F848EA050579
S31508000B30DFF84C814FEA920948F82950D1F8048029
S31508000B4008F48018B8F5801F0AD1DFF83881D8F87C
S31508000B50008048EA0008DFF82C91C9F8008009E00F
S31508000B60DFF82081D8F8008028EA0008DFF8149119
S31508000B70C9F80080D1F8048008F40018B8F5001FF9
S31508000B8010D1DFF8008108F10408D8F8008048EA97
S31508000B900008DFF8F09000E05AE009F10409C9F806
S31508000BA000800DE0DFF8DC8008F10408D8F8008042
S31508000BB028EA0008DFF8CC9009F10409C9F8008092
S31508000BC0D1F8048008F40038B8F5003F0ED1DFF8F4
S31508000BD0B480A8F10408D8F8008048EA0008DFF8CD
S31508000BE0A490A9F10409C9F800800DE0DFF8948003
S31508000BF0A8F10408D8F8008028EA0008DFF88490ED
S31508000C00A9F10409C9F80080D1F8048008F48038ED
S31508000C10B8F5803F0ED1DFF86C80A8F10808D8F83F
S31508000C20008048EA0008DFF85C90A9F10809C9F8CD
S31508000C3000800DE0DFF84C80A8F10808D8F800809D
S31508000C4028EA0008DFF83C90A9F10809C9F80080ED
S31508000C50521CD1F8008028FA02F8B8F1000F7FF488
S31508000C6089AEBDE8F88700000000111000100240A8
S31508000C7000080140000C014000100140001401402A
S31508000C800800014008040140024693680B400BB176
S31508000C90012000E0002070470AB1016101E00B0461
S31508000CA0036170470148006870470000440000204F
S31508000CB003480068034909780844014908607047F1
S31508000CC0440000204C00002010B50848006840F099
S31508000CD0100006490860032000F0B8F80F2000F05D
S31508000CE007F800F02BF8002010BD00000020024095
S31508000CF070B504460E4800784FF47A71B1FBF0F0EF
S31508000D000C490968B1FBF0F5284600F03DFC08B12E
S31508000D10012070BD102C07D200222146501E00F07B
S31508000D2057F80548046001E00120F2E70020F0E7E3
S31508000D304C000020400000204800002008B500BFF5
S31508000D401948806940F0010017498861084680699A
S31508000D5000F00100009000BF00BF00BF0846C06950
S31508000D6040F08050C8610846C06900F08050009085
S31508000D7000BF00BF00221146012000F029F801201B
S31508000D8000F016F800221146052000F021F805208B
S31508000D9000F00EF800BF0549486820F0E06040F012
S31508000DA00070486000BF08BD001002400000014006
S31508000DB001460846002809DB00F01F0301229A4075
S31508000DC043099B0003F1E023C3F8002100BF7047E5
S31508000DD02DE9F05F80460D461646002702F0CCFC4A
S31508000DE0074639462A46334601F00700C0F1070A86
S31508000DF0BAF1040F02D94FF0040A01E0C0F1070A5C
S31508000E00D14600F1040ABAF1070F02D24FF0000AE0
S31508000E1001E0A0F1030AD4464FF0010A0AFA09FADA
S31508000E20AAF1010A0AEA020A0AFA0CFA4FF0010BB9
S31508000E300BFA0CFBABF1010B0BEA030B4AEA0B04AA
S31508000E402146404602F084FCBDE8F09F00BF00F052
S31508000E500702064B19684FF6FF031940044B0B436C
S31508000E6043EA0221014B196000BF70470CED00E010
S31508000E700000FA0500BF00BF00BF00BF00BFBFF3F8
S31508000E804F8F00BF00BF00BF0948006800F4E0604C
S31508000E9008490843001D0649086000BF00BF00BF97
S31508000EA0BFF34F8F00BF00BF00BF00BF00BFFDE705
S31508000EB00CED00E00000FA057047000010B5064882
S31508000EC0006800F4803028B1FFF7F6FF4FF4803051
S31508000ED00149086010BD00001404014070B50446BD
S31508000EE00D460CB9012070BD5A48006800F007008D
S31508000EF0A8420ED25748006820F0070028435549F3
S31508000F0008600846006800F00700A84201D00120E2
S31508000F10E9E7207800F0020002281DD1207800F0C9
S31508000F200400042805D14C48406840F4E0604A496A
S31508000F304860207800F00800082805D1464840682F
S31508000F4040F46050444948604348406820F0F00047
S31508000F50A168084340494860207800F0010078B34A
S31508000F606068012806D13C48006800F4003090B952
S31508000F700120B8E76068022806D13748006800F003
S31508000F80007040B90120AEE73348006800F002005F
S31508000F9008B90120A7E73048406820F003006168D7
S31508000FA008432D494860FFF77DFE064609E0FFF72E
S31508000FB079FE801B41F28831884202D9032092E7E4
S31508000FC007E02548406800F00C006168B0EB810F27
S31508000FD0EDD12048006800F00700A8420ED91D4848
S31508000FE0006820F0070028431A4908600846006888
S31508000FF000F00700A84201D0012074E7207800F02D
S315080010000400042807D11448406820F4E060E16829
S31508001010084311494860207800F00800082808D1DC
S315080010200D48406820F46050216940EAC1000A4929
S31508001030486000F03FF808494968C1F30311074AB8
S31508001040515CC8400649086006480068FFF750FE2C
S31508001050002048E700200240001002403E4C0008ED
S315080010604000002048000020014800687047000042
S315080010704000002000B5FFF7F7FF04494968C1F3AF
S315080010800221034A515CC84000BD0000001002401E
S315080010904E4C000800B5FFF7E7FF04494968C1F35D
S315080010A0C221034A515CC84000BD0000001002403E
S315080010B04E4C000870B500210022002400230020B1
S315080010C0134D696801F00C05EDB1042D02D0082D09
S315080010D01AD101E00F4819E00F4DC1F38346AB5D05
S315080010E001F4803555B10A4D6D68C5F340450B4E80
S315080010F0725D084D5D43B5FBF2F402E0084D03FB53
S3150800110005F4204602E000BF024800BF00BF70BDDC
S315080011100010024000127A00564C0008664C00087F
S3150800112000093D00F8B504460CB90120F8BD207841
S3150800113000F00100002878D0F848406800F00C005C
S3150800114004280CD0F548406800F00C00082811D196
S31508001150F248406800F48030B0F5803F0AD1EF4885
S31508001160006800F4003000285FD0606800285CD171
S315080011700120DBE700BF6068B0F5803F06D1E7488D
S31508001180006840F48030E549086028E0606858B98E
S31508001190E248006820F48030E049086008460068A4
S315080011A020F4802008601AE06068B0F5A02F0BD103
S315080011B0DA48006840F48020D84908600846006884
S315080011C040F4803008600AE0D448006820F4803093
S315080011D0D24908600846006820F48020086000BFED
S315080011E0606888B1FFF75EFD054606E0FFF75AFD21
S315080011F0401B642801D9032098E7C848006800F412
S3150800120000300028F2D010E0FFF74CFD054606E056
S31508001210FFF748FD401B642801D9032086E7BF482D
S31508001220006800F400300028F2D1207800F00200AF
S31508001230022857D1B948406800F00C0050B1B748A9
S31508001240406800F00C00082818D1B448406800F43B
S31508001250803098B9B148006800F0020020B12069D2
S31508001260012801D0012061E7AC48006820F0F800A9
S31508001270616940EAC100A949086033E02069E8B11C
S315080012800120A7490860FFF70DFD054606E0FFF7B0
S3150800129009FD401B022801D9032047E79F4800683B
S315080012A000F002000028F2D09C48006820F0F80000
S315080012B0616940EAC1009949086013E0002098492D
S315080012C00860FFF7EFFC054606E0FFF7EBFC401B5E
S315080012D0022801D9032029E79048006800F0020097
S315080012E00028F2D1207800F0080008282DD1A0693E
S315080012F0B8B101208B490860FFF7D4FC054606E023
S31508001300FFF7D0FC401B022801D903200EE78348CB
S31508001310406A00F002000028F2D0012001F028FF00
S3150800132013E000207F490860FFF7BCFC054606E08D
S31508001330FFF7B8FC401B022801D90320F6E67748D8
S31508001340406A00F002000028F2D1207800F004007C
S31508001350042873D100277148C06900F0805070B91D
S3150800136000BF6E48C06940F080506C49C8610846A5
S31508001370C06900F08050009000BF00BF01276A488E
S31508001380006800F48070B0B96748006840F480705F
S3150800139065490860FFF786FC054606E0FFF782FC0C
S315080013A0401B642801D90320C0E65F48006800F4A2
S315080013B080700028F2D000BFE068012806D157489F
S315080013C0006A40F001005549086227E0E06858B90C
S315080013D05248006A20F00100504908620846006A2F
S315080013E020F00400086219E0E06805280BD14B4894
S315080013F0006A40F00400494908620846006A40F05D
S31508001400010008620AE04548006A20F001004349E5
S3150800141008620846006A20F00400086200BFE06817
S31508001420A0B1FFF73FFC054609E0FFF73BFC401B70
S3150800143041F28831884202D9032077E622E037480C
S31508001440006A00F002000028EFD012E0FFF72AFC3D
S31508001450054608E0FFF726FC401B41F28831884222
S3150800146001D9032062E62D48006A00F00200002830
S31508001470F0D1012F05D12948C06920F080502749AD
S31508001480C86100BFE069C8B32448406800F00C0092
S31508001490082860D0E069022848D10020204908665B
S315080014A0FFF700FC054606E0FFF7FCFB401B022899
S315080014B001D903203AE61948006800F000700028B0
S315080014C0F2D1206AB0F5803F07D11448406820F46D
S315080014D00030A168084311494860D4E90801084367
S315080014E00E49496821F4741108430C4948600120E3
S315080014F00B490866FFF7D6FB054607E03DE0FFF710
S31508001500D1FB401B022801D903200FE603480068D7
S3150800151000F000700028F2D02FE000000010024012
S3150800152000004242800442420070004000201449F4
S315080015300866FFF7B7FB054606E0FFF7B3FB401B57
S31508001540022801D90320F1E50E48006800F0007072
S315080015500028F2D111E0E069012800D1E6E5094842
S31508001560466806F48031206A814204D106F4701177
S31508001570606A814201D00120D8E50020D6E5000046
S31508001580000042420010024070B504462546681E17
S31508001590B0F1807F01D301200FE0681E4FF0E021F3
S315080015A048610F214FF0FF3002F0D2F800204FF0CB
S315080015B0E021886107200861002070BD70477047E8
S315080015C030B502460B4600BF92F83C00012801D10F
S315080015D0022030BD012082F83C0000BF022082F8BC
S315080015E03D00106844681068816824F07004186823
S315080015F0044310684460104D1068A8420BD0106868
S31508001600B0F1804F07D00D4D1068A84203D00C4D9D
S315080016101068A84205D121F0800158680143106876
S315080016208160012082F83D0000BF002082F83C005E
S3150800163000BF00BFCDE70000002C014000040040B9
S315080016400008004010B504460CB9012010BD94F8F6
S315080016503D0028B9002084F83C00204600F026F812
S31508001660022084F83D00211D206801F017FB0120A7
S3150800167084F8460000BF84F83E0001213F2001554A
S31508001680402001554120015500BF00BF012084F8C4
S31508001690420043200155442001554520015500BF0D
S315080016A0012084F83D000020D0E7000038B5044644
S315080016B04149206888422ED100BF4048806940F4DD
S315080016C000603E4988610846806900F40060009021
S315080016D000BF00BF002211461820FFF779FB18202B
S315080016E0FFF766FB002211461920FFF771FB192048
S315080016F0FFF75EFB002211461A20FFF769FB1A2046
S31508001700FFF756FB002211461B20FFF761FB1B2043
S31508001710FFF74EFB4FE02068B0F1804F16D100BFAF
S315080017202648C06940F001002449C8610846C069D6
S3150800173000F00100009000BF00BF002211461C20E7
S31508001740FFF746FB1C20FFF733FB34E01C492068F3
S31508001750884216D100BF1948C06940F002001749EF
S31508001760C8610846C06900F00200009000BF00BFCB
S31508001770002211461D20FFF72BFB1D20FFF718FB43
S3150800178019E010492068884215D100BF0B48C06986
S3150800179040F004000949C8610846C06900F0040021
S315080017A0009000BF00BF002211461E20FFF710FB65
S315080017B01E20FFF7FDFA38BD002C0140001002403C
S315080017C00004004000080040014691F83D00012849
S315080017D001D001207047022081F83D000868C068E2
S315080017E040F001000B68D860124B086898420BD08D
S315080017F00868B0F1804F07D00F4B0868984203D0AD
S315080018000E4B086898420CD10868806800F00702F9
S31508001810062A0CD00868006840F001000B681860BA
S3150800182005E00868006840F001000B6818600020B1
S31508001830D0E70000002C01400004004000080040EA
S315080018402DE9F04104460D46002700BF94F83C00F8
S31508001850012802D10220BDE8F081012084F83C006D
S3150800186000BF022084F83D002068866826F07706C7
S3150800187026F47F46206886602868502833D00CDC1A
S31508001880202850D004DC00284BD0102851D149E03C
S31508001890302849D040284CD139E060282DD070280E
S315080018A007D0B0F5805F03D0B0F5005F41D10DE0F9
S315080018B041E0D5E902136A68206801F042FA206817
S315080018C0866846F077062068866034E0D5E9021314
S315080018D06A68206801F035FA2068806840F480401C
S315080018E02168886027E0EA686968206801F0E5FCF5
S315080018F05021206801F0D8FC1DE0EA686968206874
S3150800190001F0EEFC6021206801F0CEFC13E0EA68E5
S315080019106968206801F0D1FC4021206801F0C4FC08
S3150800192009E000BF00BF00BF2968206801F0BCFCC1
S3150800193001E0012700BF00BF012084F83D0000BF79
S31508001940002084F83C0000BF384684E7704770B52D
S3150800195004462068C5682068066906F00200022861
S3150800196019D105F00200022815D1401F2168086127
S31508001970012020772068806900F0030018B120460E
S31508001980FFF7E4FF05E0204600F006F9204600F0E0
S31508001990BAF90020207706F00400042819D105F0CA
S315080019A00400042815D1C043216808610220207765
S315080019B02068806900F4407018B12046FFF7C6FF1A
S315080019C005E0204600F0E8F8204600F09CF90020E3
S315080019D0207706F00800082819D105F0080008281D
S315080019E015D1C04321680861042020772068C069A2
S315080019F000F0030018B12046FFF7A8FF05E02046CF
S31508001A0000F0CAF8204600F07EF90020207706F09C
S31508001A101000102819D105F01000102815D1C04360
S31508001A2021680861082020772068C06900F44070A2
S31508001A3018B12046FFF78AFF05E0204600F0ACF80B
S31508001A40204600F060F90020207706F0010048B132
S31508001A5005F0010030B16FF00100216808612046E9
S31508001A6000F0E4F906F08000802809D105F080002E
S31508001A70802805D1C043216808612046FFF79EFDEE
S31508001A8006F04000402809D105F04000402805D15D
S31508001A90C04321680861204600F022FB06F02000BA
S31508001AA0202809D105F02000202805D1C043216847
S31508001AB008612046FFF783FD70BD000010B586B0AB
S31508001AC00446002002900390049005902068B0F127
S31508001AD0804F39D100BF2B48806940F0080029495A
S31508001AE088610846806900F00800019000BF00BFC1
S31508001AF000BF0846806940F004008861084680698E
S31508001B0000F00400019000BF00BF40F608400290B4
S31508001B1002200390059002A91B48FEF725FF4FF403
S31508001B200040029002200390059002A91748FEF78C
S31508001B301BFF00BF1649486820F4407040F0E0607B
S31508001B4040F4407048601AE012492068884216D16D
S31508001B5000BF0C48806940F008000A4988610846B9
S31508001B60806900F00800019000BF00BF01200290C4
S31508001B7002200390059002A90348FEF7F5FE06B079
S31508001B8010BD000000100240000C01400008014092
S31508001B90000001400004004070472DE9F04104466A
S31508001BA00D461646002700BF94F83C00012802D1CE
S31508001BB00220BDE8F081012084F83C0000BF36B160
S31508001BC0042E1BD0082E31D00C2E5ED145E02946B6
S31508001BD0206801F0E1FA2068806940F00800216871
S31508001BE088612068806920F004002168886120687F
S31508001BF08069296908432168886148E02946206880
S31508001C0001F0AAF82068806940F4006021688861BC
S31508001C102068806920F4806021688861206880696E
S31508001C20296940EA01202168886130E02946206850
S31508001C3001F0E2FA2068C06940F008002168C8612E
S31508001C402068C06920F004002168C8612068C0695E
S31508001C50296908432168C86119E02946206801F006
S31508001C60FFFA2068C06940F400602168C8612068EE
S31508001C70C06920F480602168C8612068C069296944
S31508001C8040EA01202168C86101E0012700BF00BFC2
S31508001C9000BF002084F83C0000BF384689E710B52D
S31508001CA004460CB9012010BD94F83D0028B900205F
S31508001CB084F83C00204600F025F8022084F83D0010
S31508001CC0211D206800F0EAFF012084F8460000BFC5
S31508001CD084F83E0001213F2001554020015541204E
S31508001CE0015500BF00BF012084F84200432001557A
S31508001CF0442001554520015500BF012084F83D00C8
S31508001D000020D0E770477047F0B504460D46002618
S31508001D1015B994F83E000BE0042D02D13F20005D72
S31508001D2006E0082D02D14020005D01E04120005D5B
S31508001D30012801D00120F0BD1DB9022084F83E001B
S31508001D400EE0042D03D102213F20015508E0082D9D
S31508001D5003D102214020015502E00221412001550C
S31508001D6035B1042D0BD0082D10D00C2D1CD114E044
S31508001D702068C06840F002002168C86016E0206844
S31508001D80C06840F004002168C8600FE02068C06899
S31508001D9040F008002168C86008E02068C06840F084
S31508001DA010002168C86001E0012600BF00BF76BBAD
S31508001DB001222946206800F0B3FF194920688842A5
S31508001DC001D1012000E0002028B12068406C40F4D1
S31508001DD00040216848641249206888420BD0206870
S31508001DE0B0F1804F07D00F492068884203D00E49CA
S31508001DF0206888420CD12068806800F00707062F03
S31508001E000CD02068006840F001002168086005E0F1
S31508001E102068006840F001002168086030468AE7BB
S31508001E20002C014000040040000800402DE9F04F56
S31508001E3089B081468B49D9F80000884240D10024F0
S31508001E403CE0894850F82400884951F82410401A83
S31508001E50874941F82400844850F82400834941F80A
S31508001E602400834951F8240002F084FC824602F0DB
S31508001E70D5FA07467F4A804B01F090FF054601F0E8
S31508001E80B3FE7E4941F8240051F824004FF0804102
S31508001E9002F0D0FC089002F0C1FA0746784A794B5E
S31508001EA002F0D4F882460022774B02F0CFF80546B6
S31508001EB001F09AFE754941F82400641C042CC0DB25
S31508001EC07349D9F8000088427ED1724840790028C3
S31508001ED038D17049887902F065FC804602F09EFA8E
S31508001EE0064600226C4B02F0AFF900226B4BCDE997
S31508001EF0060102F0ABF804460022694B01F04EFFDA
S31508001F00824601F071FE674908606249C87902F0A5
S31508001F1049FC804602F082FA064600225E4B02F031
S31508001F2093F904460022604B02F090F800225C4BBD
S31508001F30CDE9060101F032FF824601F055FE5B4904
S31508001F4008600BE053484079012807D158480068D3
S31508001F5054490860564840685449086055485649E7
S31508001F60564A574BCDE900210290504802684D4821
S31508001F700168544800F0CDFF5348002201684348E1
S31508001F8000684F4B1B68CDE90430CDE906214F4B5D
S31508001F9010330FCB8DE80F004C480FC801F0B4FC86
S31508001FA0044602F0E7FB4A490860474801220168EF
S31508001FB036484068414B1B68CDE90430CDE9062117
S31508001FC04248D0E90D2300E048E0016BC06B8DE87C
S31508001FD00E0003903D4820300FC801F095FC0446DA
S31508001FE002F0C8FB3B4908603748022201682748C7
S31508001FF08068314B1B68CDE90430CDE906213348AA
S31508002000D0E91523016DC06D8DE80E0003902F48A9
S3150800201040300FC801F078FC044602F0ABFB2E49AD
S3150800202008602948032201681848C068214B1B68C4
S31508002030CDE90430CDE906212448D0E91D23016FF6
S31508002040C06F8DE80E000390204860300FC801F07D
S315080020505BFC044602F08EFB2049086009B0BDE827
S31508002060F08F0000002C0140A4000020B4000020DE
S31508002070C40000206766666666E624407001002094
S315080020804AD8124DFB21094000004140600100205A
S31508002090000800407000002000005940000016406B
S315080020A00000494028000020003091402C00002004
S315080020B0040000203C0000203800002034000020E6
S315080020C0300000205401002000000020D400002029
S315080020D0180000201C0000202000002024000020FA
S315080020E070477047704700002DE9F84F044620688E
S315080020F005682068C668206847694FF00009CA461F
S3150800210005F00F09B9F1000F0AD105F0200038B122
S3150800211006F0200020B1204601F09CF9BDE8F88FB2
S31508002120B9F1000F7BD007F0010018B906F49070DA
S31508002130002874D005F0010030B106F4807018B19B
S31508002140606C40F00100606405F0040030B107F0EF
S31508002150010018B1606C40F00200606405F00200EE
S3150800216030B107F0010018B1606C40F004006064FB
S3150800217005F0080048B106F0200010B907F0010084
S3150800218018B1606C40F008006064606C002845D0A7
S3150800219005F0200028B106F0200010B1204601F015
S315080021A059F920684069C0F3801A606C00F008008D
S315080021B010B9BAF1000F2CD0204601F00BFA2068AE
S315080021C0406900F0400000B300BF00BF2168143129
S315080021D051E8001F21F040002168143141E800024F
S315080021E0002AF3D100BFE06B50B17748E16B486332
S315080021F0E06BFEF79FF988B1E06B416B88470DE00D
S315080022002046FFF76FFF09E009E02046FFF76AFF5F
S3150800221004E02046FFF766FF002060647EE7206B37
S31508002220012877D105F01000002873D006F01000B9
S315080022300028FAD000BF00200090206800680090AF
S3150800224020684068009000BF00BF2068406900F021
S31508002250400000285FD0E06B006840681FFA80F8ED
S31508002260B8F1000F55D0A08D404552DDA4F82E8058
S31508002270E06B8069202843D000BF00BF21680C317D
S3150800228051E8001F21F4807021680C3141E80002F2
S31508002290002AF3D100BF00BF00BF2168143151E8FE
S315080022A0001F21F001002168143141E80002002ACC
S315080022B0F3D100BF00BF00BF2168143151E8001FE9
S315080022C021F040002168143141E80002002AF3D1C8
S315080022D000BF202084F842000020206300BF00BF12
S315080022E021680C3151E8001F21F0100021680C31DB
S315080022F041E80002002AF3D100BFE06BFEF7EEF8D2
S3150800230002206063A08DE28D801A81B22046FFF715
S31508002310E8FE03E742E0A08DE18D401A1FFA80F837
S31508002320E08DD0B3B8F1000F37D000BF00BF2168E9
S315080023300C3151E8001F21F4907021680C3141E8F6
S315080023400002002AF3D100BF00BF00BF2168143184
S3150800235051E8001F21F001002168143141E800020C
S31508002360002AF3D100BF202084F842000020206311
S3150800237000BF00BF21680C3151E8001F21F0100092
S3150800238021680C3141E80002002AF3D100BF02207F
S31508002390606341462046FFF7A4FEBFE605F08000CD
S315080023A030B106F0800018B1204601F0D1F8B5E644
S315080023B005F0400030B106F0400018B1204601F0A3
S315080023C0ACF9ABE600BFA9E63B37000810B50446F2
S315080023D00CB9012010BDA06900B100E000BF94F857
S315080023E0410028B9002084F84000204600F02AF869
S315080023F0242084F841002068C06820F40050216831
S31508002400C860204600F0A8FF2068006920F49040C4
S31508002410216808612068406920F02A00216848611F
S315080024202068C06840F400502168C86000206064D5
S31508002430202084F8410084F842000020606300BF31
S31508002440C8E7000010B586B0044600200290039045
S31508002450049005906F49206888426AD100BF6E488B
S31508002460806940F480406C4988610846806900F4B8
S315080024708040019000BF00BF00BF0846806940F059
S31508002480040088610846806900F00400019000BFD6
S3150800249000BF48150290022003900320059002A968
S315080024A05E48FEF761FA4FF48060029000200390C0
S315080024B0049002A95948FEF757FA5948594908603D
S315080024C0002048600021574881608021C1600021B2
S315080024D0016141618161C161FEF752F908B1FDF7F9
S315080024E0FAFF00BF4F48E063446200BF4C48143807
S315080024F04D4908601020486000214B4881608021C2
S31508002500C1600021016141618161C161FEF738F94D
S3150800251008B1FDF7E0FF00BF4348A063446200BF6F
S31508002520002211462520FEF753FC2520FEF740FC25
S315080025306DE03E492068884269D100BF3648C069C7
S3150800254040F400303449C8610846C06900F40030D8
S31508002550019000BF00BF00BF0846806940F0040034
S3150800256088610846806900F00400019000BF00BF3A
S3150800257004200290022003900320059002A9274810
S31508002580FEF7F2F90820029000200390049002A9B1
S315080025902248FEF7E9F92248143025490860002048
S315080025A048600021224881608021C16000210161C4
S315080025B041618161C161FEF7E3F808B1FDF78BFF60
S315080025C000BF1B48E063446200BF1548283019491C
S315080025D00860102048600021164881608021C1608B
S315080025E00021016141618161C161FEF7C9F808B145
S315080025F0FDF771FF00BF0F48A063446200BF0022C9
S3150800260011462620FEF7E4FB2620FEF7D1FB06B08E
S3150800261010BD0000003801400010024000080140CB
S315080026205800024030030020740300200044004094
S31508002630B8030020FC03002070B504460D46164674
S3150800264094F8420020280BD105B10EB9012070BDBF
S315080026500020206332462946204600F0B1FBF6E703
S315080026600220F4E710B5044617492068884214D1B9
S3150800267016480078A52809D1144800795A2805D1A2
S3150800268012491348006800F085FA01E0FEF7F2FBEC
S3150800269005220E490F48FFF7CFFF0F4920688842E9
S315080026A011D10E480078A52808D10C48C0785A28B8
S315080026B004D10A490A48006800F08AFA0422074940
S315080026C00848FFF7B9FF10BD003801407C0000201C
S315080026D000000020A00200200044004090000020D6
S315080026E00C000020E80200207047704700BFFEE794
S315080026F008B500BF1648406940F001001449486112
S315080027000846406900F00100009000BF00BF0022A3
S3150800271011460E20FEF75CFB0E20FEF749FB002251
S3150800272011460F20FEF754FB0F20FEF741FB00224F
S3150800273011461020FEF74CFB1020FEF739FB00224D
S3150800274011461120FEF744FB1120FEF731FB08BDA8
S315080027500010024000B585B0002001900290039059
S31508002760049000BF5148806940F010004F498861C5
S315080027700846806900F01000009000BF00BF00BF47
S315080027800846806940F0200088610846806900F0A4
S315080027902000009000BF00BF00BF0846806940F0D7
S315080027A0040088610846806900F00400009000BFB4
S315080027B000BF00BF0846806940F0080088610846E7
S315080027C0806900F00800009000BF00BF00224FF4A7
S315080027D073413748FEF760FA00224FF41061354816
S315080027E0FEF75AFA4FF40050019033480290002041
S315080027F0039001A93148FEF7B7F841F2310001907C
S315080028002D4802900020039001A92A48FEF7ACF84B
S31508002810C2200190284802900020039001A924486C
S31508002820FEF7A2F84FF473400190012002900020B1
S3150800283003900220049001A91D48FEF795F84FF46D
S31508002840106001900120029000200390022004905D
S3150800285001A91848FEF788F8002201210620FEF78C
S31508002860B7FA0620FEF7A4FA002201210720FEF790
S31508002870AFFA0720FEF79CFA002201210A20FEF78C
S31508002880A7FA0A20FEF794FA002201211720FEF77C
S315080028909FFA1720FEF78CFA002201212820FEF75E
S315080028A097FA2820FEF784FA05B000BD001002400A
S315080028B0000C014000080140000011100010014002
S315080028C000B587B00020039004900590069001900B
S315080028D0029015481549086040F2CF20486000214B
S315080028E01248816041F28731C1600021016141616E
S315080028F08161FEF7A7FE08B1FDF7EDFD4FF48050A4
S31508002900039003A90948FEF79BFF08B1FDF7E3FD0D
S3150800291000200190029001A90448FEF751FE08B173
S31508002920FDF7D9FD07B000BD002C0140800100204D
S3150800293000B58DB0002009900A900B900C90079076
S3150800294008901C216846FDF741FC4FF080402B4952
S315080029500860082048600021284881606321C1601A
S31508002960002101618161FEF76DFE08B1FDF7B3FD37
S315080029704FF48050099009A92048FEF761FF08B175
S31508002980FDF7A9FD1D48FFF78AF908B1FDF7A3FD74
S3150800299000200790089007A91848FEF711FE08B10D
S315080029A0FDF799FD602000900020019002900490A8
S315080029B0002269461148FFF7F0F808B1FDF78BFDCC
S315080029C0042269460D48FFF7E8F808B1FDF783FDCC
S315080029D0082269460948FFF7E0F808B1FDF77BFDCC
S315080029E00C2269460548FFF7D8F808B1FDF773FDCC
S315080029F00248FFF763F80DB000BD0000C8010020CB
S31508002A0000B58DB0002009900A900B900C900790A5
S31508002A1008901C216846FDF7D9FB20482049086024
S31508002A2040F2CF20486000211D48816040F2CF71F6
S31508002A30C160002101618161FEF704FE08B1FDF75E
S31508002A404AFD4FF48050099009A91548FEF7F8FE8B
S31508002A5008B1FDF740FD1248FFF721F908B1FDF767
S31508002A603AFD00200790089007A90D48FEF7A8FD33
S31508002A7008B1FDF730FD602000900020019002901B
S31508002A800490082269460648FFF787F808B1FDF75B
S31508002A9022FD0348FFF712F80DB000BD0004004000
S31508002AA01002002000B587B000200390049005901E
S31508002AB006900190029015481549086040F2CF200B
S31508002AC0486000211248816040F2E731C160002168
S31508002AD001618161FEF7B6FD08B1FDF7FCFC4FF414
S31508002AE08050039003A90A48FEF7AAFE08B1FDF72D
S31508002AF0F2FC00200190029001A90548FEF760FD4E
S31508002B0008B1FDF7E8FC07B000BD0000000800406A
S31508002B105802002010B50B480B4908604FF4E13005
S31508002B204860002108488160C16001610C2141614B
S31508002B3000218161C161FFF749FC08B1FDF7CBFCB3
S31508002B4010BD000000380140A002002010B50B4857
S31508002B500B4908604FF4E13048600021084881605D
S31508002B60C16001610C21416100218161C161FFF7EA
S31508002B702DFC08B1FDF7AFFC10BD00000044004075
S31508002B80E802002000BFFEE700BFFEE710B5FEF72B
S31508002B9095F910BD4A7802F0010202704A78C2F32C
S31508002BA0400242704A78C2F3800282704A78C2F3C1
S31508002BB0C002C2704A78C2F3001202714A78C2F3A0
S31508002BC0401242718A788271CA78C27170470000D1
S31508002BD02DE9F04104460D46687801F0E3FD80468C
S31508002BE00B4901F0B5FC07460A4901F023FE0646E3
S31508002BF0094901F0AFFF2060A87801F0D3FD064629
S31508002C004FF0804101F016FE6060BDE8F0810000DB
S31508002C1000007F43000060410000E04070477047B5
S31508002C20704710B5FEF744F810BD704710B5024856
S31508002C30FEF78DFE10BD00008001002010B5024889
S31508002C40FEF785FE10BD00008001002010B5024881
S31508002C50FEF77DFE10BD00008001002010B5024879
S31508002C60FEF775FE10BD00008001002010B5024871
S31508002C70FEF76DFE10BD0000C801002010B5024821
S31508002C80FEF765FE10BD00001002002010B50248D0
S31508002C90FEF75DFE10BD00005802002010B5026860
S31508002CA01C4B984208D0B0F1804F05D01A4B984279
S31508002CB002D01A4B984203D122F070024B681A438D
S31508002CC0144B984208D0B0F1804F05D0124B984269
S31508002CD002D0124B984203D122F44072CB681A43B1
S31508002CE022F080034C6943EA040202608B68C362DF
S31508002CF00B688362074B984201D10B690363012372
S31508002D004361036903F001031BB1036923F001035F
S31508002D10036110BD002C014000040040000800407B
S31508002D2030B501F01F05012404FA05F3046A9C4333
S31508002D300462046A01F01F0502FA05F52C430462D1
S31508002D4030BD30B50C46816821F47F4142EA03253F
S31508002D5025432943816030BD30B5026A056A25F0EE
S31508002D60100505624368846924F4E04424F4407439
S31508002D700D6844EA052422F020028D6842EA05120D
S31508002D800E4DA84207D100BF22F08002CD6842EA64
S31508002D90051222F04002094DA84209D123F48063A6
S31508002DA023F400634D6943EA85038D6943EA850385
S31508002DB0436084614D688563026230BD002C014022
S31508002DC077B581B0044615460298A062A58500200D
S31508002DD06064222084F842002848E16B886228480B
S31508002DE0E16BC8622748E16B08630020E16B486322
S31508002DF002AE32682368191D2B46E06BFDF7F4FC1A
S31508002E0000BF002000902068006800902068406895
S31508002E10009000BF00BF206970B100BF00BF2168E5
S31508002E200C3151E8001F41F4807021680C3141E8EB
S31508002E300002002AF3D100BF00BF00BF2168143189
S31508002E4051E8001F41F001002168143141E80002F1
S31508002E50002AF3D100BF00BF00BF2168143151E832
S31508002E60001F41F040002168143141E80002002AA1
S31508002E70F3D100BF002004B070BD0000673600081B
S31508002E80B13500080933000810B50248FFF72CF9D8
S31508002E9010BD0000A002002010B50248FFF724F973
S31508002EA010BD0000E802002000BFFEE700B58FB0A5
S31508002EB0282105A8FDF78AF914216846FDF786F941
S31508002EC00120059000040690002007900120099033
S31508002ED002200C90C1030D914FF4E0110E9105A844
S31508002EE0FEF720F908B1FDF7F6FA0F200090022048
S31508002EF00190002002904FF4806003900020049017
S31508002F0002216846FDF7EAFF08B1FDF7E4FA0FB0BB
S31508002F1000BD2DE9F04F87B004468A4691461D4606
S31508002F20DDE91178109E6168084601F083FC02907D
S31508002F302168084601F07EFC0190029901F09AFA90
S31508002F408346584600F004FE4FF08041039001F096
S31508002F50FFFA06904FF08040069901F06BFC834615
S31508002F605946606801F0F4FA05904FF080400699DA
S31508002F7001F060FC83465946206801F0E9FA04909E
S31508002F800021504601F0A6FB08D1C8F80090C7F802
S31508002F900090C6F80090C5F8009072E05046069971
S31508002FA001F048FC0290059901F044FC8346494625
S31508002FB001F060FA28605046069901F03BFC029041
S31508002FC0049901F037FC8346494601F030FD30602C
S31508002FD05046069901F02EFC0290059901F02AFC4C
S31508002FE08346494601F046FA38605046069901F08C
S31508002FF021FC0290049901F01DFC8346494601F024
S3150800300016FDC8F80000A06880F0004004F1080129
S315080030100390284600F0DCFD834603A900F0CCFDAA
S3150800302000682860A06880F0004004F10801039059
S31508003030304600F0CDFD834603A900F0BDFD0068CB
S315080030403060A06880F0004004F10801039038461B
S3150800305000F0BEFD834603A900F0AEFD00683860A7
S31508003060A06880F0004004F108010390404600F093
S31508003070AFFD834603A900F09FFD0068C8F800006D
S3150800308000BF07B0BDE8F08F0160426083607047FB
S315080030902DE9FC5F04460E4617463946304601F0D0
S315080030A059FD05464FF08040E16801F0C3FB29460B
S315080030B0009001F0BCFC8346216901F0DBF98246E9
S315080030C0A16801F0B7FB81462946606801F0B2FBAA
S315080030D000902846E16801F03DFD8346216801F02D
S315080030E0A9FB8246009901F0C5F94946019001F00D
S315080030F0C1F980464146606901F0BCF96061E16941
S31508003100606901F063FC02D2E069606106E0D4E917
S31508003110050101F05BFB01D2A0696061E0682061EE
S31508003120E5606069BDE8FC9F70B5DDE904450160AE
S31508003130426083600026C660066146618461C56197
S3150800314070BD30B590F840500124AC40C56B6C603A
S31508003150046863604468102C04D10468A26004689B
S31508003160E16003E00468A1600468E26030BD000025
S3150800317008B508490968C9084FF47A72B1FBF2F133
S315080031804143009100BF00BF00994A1E00920029E2
S31508003190F9D108BD4000002030B5026A056A25F05D
S315080031A0010505624368846924F0700424F0030469
S315080031B00D682C4322F002028D682A430D4DA84261
S315080031C006D100BF22F00802CD682A4322F0040285
S315080031D0084DA84207D123F4807323F400734D6980
S315080031E02B438D692B43436084614D6845630262B6
S315080031F030BD0000002C014030B5026A056A25F48E
S31508003200807505624368C46924F0700424F00304D9
S315080032100D682C4322F400728D6842EA05220F4D90
S31508003220A84207D100BF22F40062CD6842EA05220F
S3150800323022F48062094DA84209D123F4805323F46D
S3150800324000534D6943EA05138D6943EA0513436044
S31508003250C4614D68C563026230BD0000002C0140A0
S3150800326030B5036A056A25F4805505624468C26963
S3150800327022F4E04222F440720D6842EA052223F461
S3150800328000538D6843EA0533064DA84204D124F459
S3150800329080444D6944EA85144460C2614D680564FA
S315080032A0036230BD002C01400A46816821F0700196
S315080032B042F0070319438160704730B50B46144640
S315080032C0026A056A25F001050562816921F0F001A7
S315080032D041EA041122F00A021A438161026230BDF2
S315080032E030B50B461446026A056A25F010050562D4
S315080032F0816921F4704141EA043122F0A00242EAD0
S3150800330003128161026230BD70B506460025746AF3
S3150800331020684069C0F3C01594F84100212805D1FA
S3150800332025B10020E084204600F08AF9206840692B
S31508003330C0F3801594F84200222805D125B1002053
S31508003340E085204600F046F9606C40F010006064A5
S315080033502046FEF7C7FE70BD70B5044621680969A8
S3150800336021F44051E2681143226811612269A1687B
S315080033701143626941EA02052168C96841F20C6293
S31508003380914329432268D1602168496921F4407133
S31508003390A2691143226851612D4A2168914202D1DE
S315080033A0FDF778FE01E0FDF765FE00EBC00101EBD5
S315080033B0001162689200B1FBF2F100EBC00202EB69
S315080033C0001263689B00B2FBF3F26423B2FBF3F2CC
S315080033D002EBC20303EB0212A1EB8201322202EBDB
S315080033E001116422B1FBF2F101F0F00100EBC00219
S315080033F002EB001263689B00B2FBF3F26423B2FB94
S31508003400F3F201EB021200EBC00101EB0011636855
S315080034109B00B1FBF3F100EBC00303EB00136668F6
S31508003420B600B3FBF6F36426B3FBF6F303EBC30669
S3150800343006EB0313A1EB8301322303EB011164238B
S31508003440B1FBF3F101F00F0111442268916070BDE0
S3150800345000380140F8B5044694F84200222875D190
S31508003460A068B0F5805F0CD1206950B90025A66A1E
S3150800347020684068C0F308003080A06A801CA062FB
S3150800348015E0A56A0026A068B0F5805F03D0A0689D
S3150800349028B9206918B920684068287004E02068AF
S315080034A0406800F07F002870A06A401CA062E08D8A
S315080034B0401E80B2E085002846D12068C06820F00A
S315080034C020002168C8602068C06820F480702168E0
S315080034D0C8602068406920F0010021684861202002
S315080034E084F8420000206063206B012826D1002062
S315080034F0206300BF00BF21680C3151E8001F21F08E
S31508003500100021680C3141E80002002AF3D100BFFF
S315080035102068006800F0100010280AD100BF0020BB
S31508003520009020680068009020684068009000BFFE
S3150800353000BFA18D2046FEF7D4FD02E02046FFF726
S3150800354091F80020F8BD01E00020FBE70220F9E72A
S31508003550014691F84100212828D18868B0F5805F96
S315080035600BD1086948B90A6A1088C0F308000B68C5
S315080035705860086A801C086205E00B6A581C0862D5
S3150800358018780B685860C88C401E80B2C88458B931
S315080035900868C06820F080000B68D8600868C068B2
S315080035A040F040000B68D860002070470220FCE716
S315080035B070B505466C6A01206063206B012805D149
S315080035C0A08D41082046FEF78CFD02E02046FFF755
S315080035D08BF870BD00BF00BF02680C3252E8002F9E
S315080035E022F4907102680C3242E80013002BF3D1E2
S315080035F000BF00BF00BF0268143252E8002F22F055
S3150800360001010268143242E80013002BF3D100BF0F
S31508003610016B01290ED100BF00BF02680C3252E8C7
S31508003620002F22F0100102680C3242E80013002B2A
S31508003630F3D100BF202180F84210002101637047B2
S3150800364000BF00BF02680C3252E8002F22F0C0010A
S3150800365002680C3242E80013002BF3D100BF202188
S3150800366080F84110704770B505466C6A286800688E
S3150800367000F02000002842D1E08500BF00BF216885
S315080036800C3151E8001F21F4807021680C3141E8A3
S315080036900002002AF3D100BF00BF00BF2168143121
S315080036A051E8001F21F001002168143141E80002A9
S315080036B0002AF3D100BF00BF00BF2168143151E8CA
S315080036C0001F21F040002168143141E80002002A59
S315080036D0F3D100BF202084F84200206B01280ED1C8
S315080036E000BF00BF21680C3151E8001F21F010000F
S315080036F021680C3141E80002002AF3D100BF0020FE
S315080037006063206B012804D1A18D2046FEF7E9FCF1
S3150800371002E02046FEF7A6FF70BD10B504462068F5
S31508003720C06820F040002168C860202084F8410065
S315080037302046FEF7DAFF002010BD70B505466C6A14
S315080037400020E085E0842046FEF7CCFC70BD000032
S3150800375010B5002804DB0A07130E054A135406E0C1
S315080037600A07140E034A00F00F031B1FD45410BD9A
S3150800377000E400E018ED00E002480068C0F302200B
S31508003780704700000CED00E02DE9FC472448254968
S31508003790254B264ACDE9001025492648FFF7C4FCE3
S315080037A01F482049204B244ACDE9001023492148C7
S315080037B02030FFF7B9FC1A481A491B4B4FF07C52C8
S315080037C0CDE900101E491B484030FFF7ADFC1448F0
S315080037D014491C4B1C4ACDE9001091071548603066
S315080037E0FFF7A2FC0E4B194A19491A48FFF74CFC79
S315080037F01949887900F0D6FF824600F00FFE064682
S315080038000022164B00F020FD04460022144B00F05F
S315080038101DFC804600F0E8F912490860BDE8FC87FF
S315080038200080ED440080EDC40AD7233CFCA9F13D95
S31508003830CDCC6C40D40000209A99993FCDCC2C4031
S3150800384000006040CDCC4C3DCDCCCC3D000059436A
S3150800385000009643540100207000002000005940E3
S315080038600000164028000020FDF72EFAFFF71EFB81
S31508003870FEF770FFFEF73CFFFFF74CF9FFF720F85D
S31508003880FFF756F8FFF7BCF8FFF760F9FFF70AF9F4
S31508003890052214491448FEF7CFFE0422134914489A
S315080038A0FEF7CAFE1348FDF78FFF1348FDF78CFF96
S315080038B000211248FEF728FA04211048FEF724FAD8
S315080038C008210E48FEF720FA0C210C48FEF71CFAD0
S315080038D008210B48FEF718FA03E00A48006800F0CA
S315080038E04DF9FAE77C000020A00200209000002095
S315080038F0E80200208001002058020020C8010020AC
S3150800390010020020000000200FB42DE9F047DDE981
S315080039101067DDE912453A46314608A8FFF7B8FBB5
S31508003920804600F00BFF844941F8240051F8241022
S31508003930642201FB02F000F01DFF81467F4850F823
S315080039402410484600F004FE804600F0F7FE7C4945
S3150800395041F82400084650F82400642802DD642053
S3150800396041F82400764850F8240010F1640F04DA70
S315080039706FF06300724941F82400A87800B301206B
S31508003980FCF7AAFC0120FCF705FD0120FCF7D2FC98
S315080039900120FCF72DFD6B4800686B4909684863F0
S315080039A0684840686849096888636648806866495F
S315080039B00968C8636348C068634909680864B3E06E
S315080039C02879D8B10120FCF787FC0120FCF7E2FC36
S315080039D04FF0FF30FCF7AEFC4FF0FF30FCF708FD68
S315080039E0322059490968486357490968886356491E
S315080039F00968C86354490968086495E0E878D8B145
S31508003A004FF0FF30FCF768FC4FF0FF30FCF7C2FCC4
S31508003A100120FCF78FFC0120FCF7EAFC32204A491A
S31508003A200968486348490968886347490968C86353
S31508003A3045490968086477E0414850F82400002899
S31508003A4036DB3F4850F82400404941F8240034B199
S31508003A50012C0ED0022C16D0032C28D11DE00120F3
S31508003A60FCF73AFC394850F8240037490968486396
S31508003A701DE00120FCF75EFC344850F8240032496A
S31508003A800968886313E00120FCF784FC2F4850F886
S31508003A9024002D490968C86309E00120FCF7A8FC41
S31508003AA02A4850F8240028490968086400BF3BE002
S31508003AB0234850F824004042244941F8240034B1F0
S31508003AC0012C0FD0022C18D0032C2CD120E04FF05B
S31508003AD0FF30FCF701FC1D4850F824001A49096814
S31508003AE0486320E04FF0FF30FCF724FC174850F8F5
S31508003AF0240015490968886315E04FF0FF30FCF784
S31508003B0049FC124850F824000F490968C8630AE0BE
S31508003B104FF0FF30FCF76CFC0C4850F824000A49BB
S31508003B200968086400BF00BF054850F82400BDE8CE
S31508003B30F0075DF814FB0000600400205000002028
S31508003B404004002060000020C80100205004002026
S31508003B5070B5054600F076FF044620F00040C0F137
S31508003B60FF40C00F08D025F00040C0F1FF40C00F4D
S31508003B7004BF0120FCF76BFB204670BD01780129C4
S31508003B8006D1417821B932210A4A1268D16308E080
S31508003B90017831B94178012903D1B421054A12685F
S31508003BA0D163017829B9417819B95A21014A1268AD
S31508003BB0D16370471002002070B504460D46296887
S31508003BC0206800F003FE01D2284670BD2046FCE7B7
S31508003BD070B504460D462168286800F0F7FD01D245
S31508003BE0284670BD2046FCE721F00042A2F160524B
S31508003BF0B2F5801F01F0004328BFD2F17F6C0BD9C4
S31508003C005FEA001C43EAC20242EB507018BF7047D5
S31508003C1028BF20F001007047B2F5801FBCBF1846C8
S31508003C2070474FEA410C1CF5001F02D2084600F007
S31508003C30C8BE70B500F0B4FA00000089FFF7F6BFF9
S31508003C404FF00040A0F580007047000010B591EADB
S31508003C50030F48BF83F0004300F1FE82841A71EB1C
S31508003C60030C05D2121943EB0C03001B61EB0C0184
S31508003C70DFF824E14FEA1154A4EB135C1EEA430F64
S31508003C8018BF9EEA445F73D023EA0E03DCF1200EC8
S31508003C9021EA045143F4801332D322FA0CFE10EBC6
S31508003CA00E0023FA0CFE41EB0E01CCF1200E03FAAE
S31508003CB00EFE10EB0E0051F10001B1F5801FCCF19C
S31508003CC0200E32D201EB045112FA0EF2BDE8104072
S31508003CD058BF7047401C38BF5FEA420218BF70479A
S31508003CE0002814BF20F0010041F100014FEA41030A
S31508003CF013F5001F38BF7047A1F1C04100F09EBA06
S31508003D00012A43EB0302ACF1200CDCF11F0E32BF93
S31508003D104FF0000E23FA0CF310EB030041EB0451AD
S31508003D20B4EB115FD0D0A1EB045101F5801149081D
S31508003D305FEA300001EB04510ED350F1000038BFA2
S31508003D4012FA0EFE08D1BDE81040C9E7401C38BF7C
S31508003D505FEA4202CAD1C3E7BDE810404FEA410311
S31508003D6013F5001F38BF7047A1F1C04100F066BACD
S31508003D709EEA445F08D011EA5E0FBDE8104004BF12
S31508003D8001F0004100207047BDE8104070B500F012
S31508003D9007FA00BF64FBBE3E0000E0FF2DE9C04104
S31508003DA030B4DFF8A0C23CEA111418BF3CEA131479
S31508003DB000F0EC8081EA03051CEA111444EAD57484
S31508003DC018BF1CEA131500F0C780A4EB05044FF0D2
S31508003DD0004545EAC12145EAC32341EA505143EA71
S31508003DE0525304F17F74994204F500344FEAC02017
S31508003DF04FEAC22208BF904200F09C804FEA136542
S31508003E000FF24016765D4FEA134506FB05F7C7F134
S31508003E10807706FB07F74FEAD737A7FB0368764292
S31508003E20C8F58038A7FB06CE38BFA8F1010807FBFE
S31508003E3008E64FF0000EA6FB028CE6FB03CEDCF18B
S31508003E40000CCEF1004E38BFAEF1010EA6FB0C58A1
S31508003E504FF000074FF00005E6FB0E87A1FB08C6EA
S31508003E60A0FB07CE16EB0E0645F10005E1FB07653C
S31508003E7015F1E04E7EBFA4F580345FEA46066D4133
S31508003E8016F1800745F100054FEA17274FEA06663F
S31508003E9047EA0567A6F1DE46B6F1805F4FEA1525C3
S31508003EA01FD9384624F0010C05EBC471BCF1FE6F2E
S31508003EB001EB0C1102D8F0BCBDE8008124425CBFBE
S31508003EC001F5801E9EEAC47F02D4F0BCBDE80081DD
S31508003ED0244238D4F0BCA1F1C041BDE8004100F04D
S31508003EE0ADB94FEAD22242EA43524FEAD323A7FB9F
S31508003EF002864FEAD02040EA415007FB03661EEAD5
S31508003F000E0F4FEAD12105FB026658BFA6EB0056F5
S31508003F10B6EB00564FEA520E4EEAC37E18EB0E0E6B
S31508003F2056EB530EBDD518EB02085E417F1C55F1C2
S31508003F300005B6E74FF480154FF000074FF000066E
S31508003F404FF00008ADE7F0BC4FF0000001F1C041AA
S31508003F5001F00041BDE8008111EA0C1F0CEA1315B7
S31508003F6000D00CE013EA0C1F00F025804FF000008B
S31508003F70F0BC81EA030101F00041BDE80081F0BC14
S31508003F80BDE8004181EA030100F058B9F0BCBDE87C
S31508003F90004170B500F004F9097EFC3E00F007B850
S31508003FA081EA03014FF0000001F00041704781EA01
S31508003FB0030100F043B9F0BCBDE800414FF0000032
S31508003FC021497047FFFDFBF9F7F5F4F2F0EEEDEB4A
S31508003FD0E9E8E6E4E3E1E0DEDDDBDAD8D7D5D4D3F9
S31508003FE0D1D0CFCDCCCBCAC8C7C6C5C4C2C1C0BF45
S31508003FF0BEBDBCBBBAB9B8B7B6B5B4B3B2B1B0AF4B
S31508004000AEADACABAAA9A8A8A7A6A5A4A3A3A2A12E
S31508004010A09F9F9E9D9C9C9B9A99999897979695E9
S3150800402095949393929191908F8F8E8E8D8C8C8B85
S315080040308B8A89898888878786858584848383820D
S31508004040828181800000FF070000F87FDFF848C101
S3150800405070B51CEA111E1EBF1CEA13159EEA0C0F4A
S3150800406095EA0C0F00F06F8081EA030423EA4C13EB
S315080040704EEAD47E21EA4C1141F4801143F48013B0
S31508004080AE44A1FB024CA0FB0365AEF17F7E361958
S3150800409055EB0C05A1FB034C4CF10003A0FB021CDD
S315080040A016EB0C06654153F10003094218BF46F0AA
S315080040B0010613F4007F0BD14FEA03314FEA0530AE
S315080040C0340341EA155140EA16506FF003020AE03C
S315080040D04FEAC3214FEAC520F40241EA555140EAA6
S315080040E056506FF0020202EB2E4201EB025585EAAA
S315080040F0CE710AD05FEA440C18BF24F0004450F190
S31508004100000041F1000120EAD47040F2FE7C6245CD
S3150800411000D270BDA84214BF4FF080444FF040440F
S31508004120002E08BF0024BEF1806FA8BFA1F1C041D0
S31508004130BDE8704080F282804FF0000001F1C04176
S3150800414001F0004170479EEA0C0F0CEA131518BFE0
S3150800415095EA0C0F06D04FF0000081EA030E0EF028
S31508004160004170BD00F01CF88900013E00F007B858
S3150800417000F009B84FEA430C5FEA5C5C08D081EAB4
S31508004180030100F05BB84FEA410C5FEA5C5CF6D1CC
S315080041904FF00000014970470000FF070000F87F54
S315080041A00EF1020E2EF0030E5EF8046B364205D4AD
S315080041B0012A43EB030515F5001F12D8012841EB28
S315080041C0010C1CF5001F0CD80ED14FEAD17C15F551
S315080041D0001F0CEB4C0C0CF1020C08BF4CEBD37C0B
S315080041E004E04FF0080C01E04FEAD37C0CEB4C05D9
S315080041F026FA05F606F00706B6F1040C06D20EEB0B
S31508004200860CBDE870404CF0010C6047DFE80CF006
S31508004210090B02024FF000414FF00000A1F5002102
S3150800422070BD19461046012851EB010418BFD4F594
S31508004230001484BF002001F0004170BD0808A0F5F5
S3150800424000114FEA3101704710B591EA030F48BFD4
S3150800425083F000433FF502AD841A71EB030C07D2D5
S3150800426012198CF0004C43EB0C03001B61EB0C019C
S31508004270DFF8A4E14FEA1154A4EB135C1EEA430FDE
S3150800428018BF9EEA445F00F0B08023EA6E035242EC
S3150800429021EA0451C3EB6E0338BF5B1EDCF1200E26
S315080042A025D322FA0CFE10EB0E0043FA0CFE41EB66
S315080042B00E01CCF1200E03FA0EFE10EB0E0051F1A2
S315080042C00001CCF1200E29D412FA0EF201EB0451AA
S315080042D0BDE8104058BF7047401C1CBFB2F1004FE4
S315080042E0704700280CBF491C20F00100704712EBEC
S315080042F0020E43EB030218BF4FF0010E4EEA4202CC
S31508004300ACF1200CDCF11E0E54D943FA0CFE10EB6E
S315080043100E0051F1FF31CCF11E0ED5D50EF1010E6E
S3150800432012FA0EFE404141EB010101EB445C5FEAE3
S315080043305C5C10D910EBDE7001EB045138BFBEF19E
S31508004340004FBDE8104018BF704700280CBF491C35
S3150800435020F00100704730D24FEAD42C11F5001135
S3150800436024F400641BD0B1FA81F20B3AA41AA41EF5
S31508004370D2F12003914030FA03F31943904001EB40
S31508004380CC71002C01EB0451BDE81040A8BF704762
S3150800439001F1C0414FF0000001F000417047B0FA4A
S315080043A080F310FA03F100D110BDE41A173C480552
S315080043B0C90AE4E701EB045110BD491001EB0451A9
S315080043C0BDE810404FEA300002E04FF000017047A8
S315080043D04A0008BF0042F8D0B2F5001F28BF704750
S315080043E001F000414FF0000070479EEA445F07D095
S315080043F011EA5E0FBDE8104004BF00210020704797
S31508004400BDE8104070B5FFF7CBFE00BF40DFF63EB3
S3150800441083F00041104670470000E0FF43004FEA72
S31508004420D30C4FEA3C0C43401FBF40070CF16051C8
S3150800443013F0FE4F70471CF0006F03D100200CF0FC
S31508004440004170470CF0004343EA507010B540EA4B
S31508004450CC0000F070FA00BF000000924FEA00019D
S31508004460FFF7ECBE4FF000414FF00000A1F5002128
S315080044707047000090EA010F48BF81F0004100F143
S315080044807083421A3CBF801A89184FEAD0524FF0FF
S315080044907F4C1CEA410FA2EBD15318BF9CEA026F6E
S315080044A000F03B804FF0004C4CEA00204CEA01211A
S315080044B021FA03FC10EB0C0C1ED202F1FF325FEA64
S315080044C01C2040EBC25038BF70471CF07F0F4FEAE4
S315080044D0400C18BFBCF17F4F38BF7047C3F12003AB
S315080044E0994008BF20F00100BCF17F4F38BF7047E4
S315080044F0A0F1C04000F065BA4FEA3C00000A40EB64
S31508004500C25028BF1CF0FF0F4FEA400CE6D018BF78
S31508004510BCF17F4F38BF7047EAE79CEA026F05D0C7
S3150800452010EA5C0F08BF00F00040704710B500F0B5
S3150800453002FA00BF64FBBE3E401058BFC0F14040BF
S31508004540491058BFC1F140418142EFF300807047DE
S315080045504FF47F0C1CEAD0121EBF1CEAD11392EA54
S315080045600C0F93EA0C0F00F0858090EA010F48BF04
S3150800457042F4807240F4000C41F400002CF07F41B4
S3150800458020F07F4000B58142A2EB03020FF2081C1F
S31508004590ACEB504EC0F100009EF800E04FEA4E0E1C
S315080045A000FB0EFC38BF49004FEA2C1C02F5FA0244
S315080045B00CFB0EF34FEACE1E4FEA112C4FEAC1212F
S315080045C00EEB635E42EB22420EFB0CFC4FEA1C53D9
S315080045D000FB03114FEA112C4FEA01310EFB0CFCCC
S315080045E04FEADC4C00FB0C11C14228BF09184CEB02
S315080045F003335DF804EB10EB410143EBC250B2F50F
S315080046007C0F38BF704729D512F0F00F1CBF00F198
S31508004610C04000F000407047008182838485868709
S3150800462088898B8C8D8E8F919293959697999A9C63
S315080046309D9FA0A2A3A5A7A8AAACAEB0B2B3B5B7D2
S31508004640B9BCBEC0C2C5C7C9CCCED1D4D7D9DCDFA8
S31508004650E2E6E9ECF0F3F7FAFE0000004FEA400C58
S315080046600CF1807CBCF17E4F28BF7047B0F1C0408A
S3150800467000F0A7B990EA010F0CEAD11348BF42F43B
S315080046808072624538BF634507D213F47F0F16D090
S3150800469080EA010000F00040704710B500F04BF9C1
S315080046A0097EFC3E00F005B880EA010000F00040F3
S315080046B0704780EA010000F0004000F082B912F469
S315080046C07F0F04BF0248704780EA010000F079B9FD
S315080046D00000C07F50EA010C00F113801CF5000FA2
S315080046E058BFBCF5000F01D48842704707D710F5AC
S315080046F0000F58BF11F5000F15D48842704789423C
S3150800470070471CF5000F04D5BCF5000FF7D581429C
S3150800471070474FF0807C1CEB400F38BF1CEB410FF5
S3150800472001D28142704710B500F005F9922449007C
S315080047304FF000504FF08051FFF7FEBE41000B0EC0
S31508004740D3F19E0208D950F400034FEA032323FA53
S3150800475002F048BF4042704710B500F0ECF800BFC1
S3150800476049922480002070476FF0004282EA2000B8
S315080047707047000010F0004148BF4042B0FA80F38D
S3150800478010FA03F2C3F19D030BD051EAC35101EBB2
S315080047901220530638BF704700F1010008BF20F009
S315080047A001007047B0FA80F310FA03F2C3F19D03D3
S315080047B00AD0D90501EB1220530638BF704700F11D
S315080047C0010008BF20F001007047000050EA010C04
S315080047D000F113801CF5000F58BFBCF5000F01D47B
S315080047E08842704707D710F5000F58BF11F5000F1C
S315080047F015D488427047894270471CF5000F04D5C6
S31508004800BCF5000FF7D5814270474FF0807C1CEB52
S31508004810400F38BF1CEB410F01D28142704710B5DB
S3150800482000F089F8922449004FF000504FF080516B
S31508004830FFF782BE4FF47F0C1CEAD0121EBF1CEA9B
S31508004840D11392EA0C0F93EA0C0F00F0478090EA16
S31508004850010F48BF42F480724FF0004C4CEA00202A
S315080048604CEA012102EB0302A0FB0113A2F50002A8
S31508004870002918BF43F001035B0028BF4FEA330342
S3150800488042EB22425FEA132C4CEBC2502EBFBCEB24
S31508004890436FB2F57C0F70474FEA036CBCF1004FCB
S315080048A008BF20F00100B2F57C0F38BF70470BD562
S315080048B082F0FF0212F5803FC8BF704700F1C04082
S315080048C0D8BF00F00040704700F5000C5FEA4C0CBA
S315080048D048BF7047B0F1C04000F073B890EA010FC6
S315080048E00CEAD11348BF42F48072624538BF63456B
S315080048F004D280EA010000F00040704710B500F0CD
S315080049001AF800BF8900013E00F007B800F009B8A0
S315080049105FEA410C5FEA1C6C08D080EA010000F0EF
S3150800492050B85FEA400C5FEA1C6CF6D14FF00040C5
S31508004930A0F5800070470EF1020E2EF0030E5EF809
S31508004940044B244204D44FEA4102B2F17F4F11D8F6
S315080049504FEA4003B3F17F4F0CD80ED14FEAD07C13
S31508004960B2F17F4F0CEB4C0C0CF1020C08BF4CEB70
S31508004970D17C04E04FF0080C01E04FEAD17C0CEB47
S315080049804C0324FA03F404F00704B4F1040C06D229
S315080049900EEB840CBDE810404CF0010C6047DFE8D4
S315080049A00CF0070802024FF00040A0F5800010BD89
S315080049B00846420018BFD2F1807288BF00F0004056
S315080049C010BDFF2141EAD050C005704751EA000CDE
S315080049D000F113801CF5000F58BFBCF5000F01D479
S315080049E08142704707D711F5000F58BF10F5000F21
S315080049F015D481427047894270471CF5000F04D5CB
S31508004A00BCF5000FF7D5884270474FF0807C1CEB49
S31508004A10410F38BF1CEB400F01D28842704780EA2D
S31508004A20010081EA000180EA0100FFF7F8BE80F084
S31508004A30004090EA010F7FF524AD81F0004100F0B7
S31508004A4090B800004FEAD051002988BFD1F1FF0283
S31508004A5040F2758001F17D014FEA002070B54908E2
S31508004A6040F0004038BF40080EA2430E040CD25C4A
S31508004A7002FB02F304FB03F3C3F14043A3FB025416
S31508004A80ED0D45EA442202FB02F3A0FB03546D42F6
S31508004A90C4F1404438BF641EA2FB05350023E2FB7F
S31508004AA00453EA0B42EA4342A0FB023212F14004E5
S31508004AB0A2F12103E40903F07F031F2B32D904EB8B
S31508004AC0C15070BDFEFAF7F3F0ECE9E6E4E1DEDC8E
S31508004AD0D9D7D4D2D0CECCCAC8C6C4C2C1BFBDBC31
S31508004AE0BAB9B7B6B4B3B2B0AFAEACABAAA9A8A7B9
S31508004AF0A6A4A3A2A1A09F9E9E9D9C9B9A999897C7
S31508004B00979695949393929190908F8E8E8D8C8C88
S31508004B108B8A8A898988878786868584848383821F
S31508004B208281818004FB04F6B6EB004603D5E64293
S31508004B3048BF641CC3E7A64258BF641CBFE711F010
S31508004B40FF0F02D100F00040704710B5FFF7F3FEE3
S31508004B507FDBFFBE90EA010F48BF81F000413FF5B9
S31508004B6090AC421A04D882F00042A0EB020011442D
S31508004B704FEAD0524FF07F4C1CEA410FA2EBD153BB
S31508004B8018BF9CEA026F4AD04FF0004C4CEA00204E
S31508004B904CEA012121FA03FCB0EB0C0C0FD412F0FD
S31508004BA0FE0F36D05FEA4C001DD5001240EBC2500E
S31508004BB038BF70471CF03F0F18BF70470BE0A2F1D3
S31508004BC001025FEA1C2040EBC25038BF70471CF058
S31508004BD07F0F18BF7047C3F12003994014BF401ECA
S31508004BE020F00100704780084FEA122308BF70477B
S31508004BF0B0FA80FCA2EB0C02CCF1280C60FA0CF09F
S31508004C0093EA122F04BF00EBC25070474FEAC370F5
S31508004C107047130A5FEADC1008BF7047F6E79CEA9C
S31508004C20026F04D010EA5C0F08BF0020704710B569
S31508004C30FFF781FE40DFF63E81F000407047000036
S31508004C40000000000000010203040607080900002E
S31508004C5000000102030402030405060708090A0BFB
S31508004C600C0D0E0F101001028C4C000800000020DD
S31508004C707000000028010008FC4C000870000020A5
S31508004C80600A00004401000801EBFFFF70000020E5
S31508004C9000000000000000000400002000000000E2
S31508004CA000000000000000000000000000000000F6
S31508004CB000000000000000000000000000000000E6
S31508004CC000000000000000000000000000127A004A
S31508004CD00000000010000000010000000C97E344EB
S31508004CE0A18AE844A16AE344419EED445E000000BF
S31108004CF064000000640000005A00000088
S705080000ED05
